:100000000C949D1B0C94C71B0C94C71B0C94C71B12
:100010000C94C71B0C94C71B0C94C71B0C94C71BD8
:100020000C94C71B0C94C71B0C94C71B0C94C71BC8
:100030000C94C71B0C94F8650C94C71B0C94C71B3D
:100040000C94C71B0C94BA9E0C9400AC0C94C71B68
:100050000C94873E0C94C71B0C94C71B0C94C71BB5
:100060000C94C71B0C94C71B0C94C71B0C94C71B88
:100070000C94C71B0C94C71B0C94C71B0C94C71B78
:100080000C94C71B0C94C71B0C94C71B34AA37AA2B
:100090002AAA2EAA4EAA4EAA3BAA3FAA45AA49AA14
:1000A0006FAB74AB79AB83ABB1ABB1AB8DAB95AB95
:1000B0009DABA7AB52D32BD262D28ED362D262D287
:1000C00062D262D262D262D262D262D262D262D290
:1000D00062D262D262D262D262D262D262D262D280
:1000E00062D262D262D262D262D262D262D262D270
:1000F00088D362D262D262D262D262D262D262D239
:1001000062D261D362D262D262D262D262D262D24F
:1001100062D262D262D262D2A5D35FD2084AD73B02
:100120003BCE016E84BCBFFDC12F3D6C74319ABDC6
:1001300056833DDA3D00C77F11BED9E4BB4C3E91EA
:100140006BAAAABE000000803F05A84CCDB2D44ED9
:10015000B93836A9020C50B9918688083CA6AAAADB
:100160002ABE000000803F004E414E494E4954597E
:10017000494E46CDCCCC3D0AD7233C17B7D1387772
:10018000CC2B329595E6241FB14F0A000020410088
:1001900000C84200401C4620BCBE4CCA1B0E5AAED2
:1001A000C59D7400407A10F35A00A0724E180900E1
:1001B00010A5D4E80000E87648170000E40B5402CC
:1001C0000000CA9A3B000000E1F505000080969807
:1001D00000000040420F000000A086010000001057
:1001E0002700000000E80300000000640000000099
:1001F000000A00000000000100000000002C76D87A
:1002000088DC674F0823DFC1DFAE59E1B1B796E55F
:10021000E3E453C63AE651997696E8E6C28426EBC3
:10022000898C9B62ED407C6FFCEFBC9C9F40F2BAD6
:10023000A56FA5F490055A2AF75C936B6CF9676D6E
:10024000C11BFCE0E40D47FEF520E6B500D0ED90C3
:100250002E0300943577050080841E080000204E90
:100260000A000000C80C333333330F986E12831129
:1002700041EF8D2114893BE65516CFFEE6DB18D100
:10028000844B381BF77C1D901DA4BBE424203284D2
:10029000725E228100C9F124ECA1E53D27434F4D58
:1002A0004D554E49434154494F4E004452595255C1
:1002B0004E004552524F525300494E464F0045435F
:1002C000484F0047322F47332062616420706172CB
:1002D000616D65746572730A00536C6565702E2ECE
:1002E0002E00456E6465722D332072656164792E2F
:1002F00000526573756D696E67207072696E740067
:10030000436C69636B20746F20726573756D652E25
:100310002E2E004E6F206D6F76652E00456E642088
:1003200066696C65206C6973740A00426567696E62
:100330002066696C65206C6973740A0054462070ED
:1003400072696E74696E67206279746520004E6F01
:1003500074205446207072696E74696E670A004694
:10036000696C652064656C657465643A0044656C0D
:100370006574696F6E206661696C65642C204669DE
:100380006C653A20006F70656E206661696C65640B
:100390002C2046696C653A20002569730025696D3B
:1003A00020256973002569682025696D20256973FA
:1003B00000256964202569682025696D20256973F9
:1003C0000025697920256964202569682025696DE3
:1003D00020256973005072696E742074696D653AE6
:1003E000200050726F7465637465642050696E0AF2
:1003F00000457874727564657220257300456E64DB
:1004000065722D332072656164792E00BE02B902D7
:10041000B202AB029D026F66660044454255473A00
:10042000004B494C4C45442E20004D313133205374
:10043000006F6B0042656420646F6E652E0020576C
:100440003A004265642048656174696E672E004514
:100450006E6465722D33204F66662E004361703ADC
:10046000454D455247454E43595F504152534552C1
:100470003A300A004361703A434153455F4C494763
:1004800048545F4252494748544E4553533A300A04
:10049000004361703A544F47474C455F4C494748C9
:1004A00054533A300A004361703A534F465457410F
:1004B00052455F504F5745523A300A004361703AF7
:1004C0004C4556454C494E475F444154413A300AE9
:1004D000004361703A5A5F50524F42453A300A0029
:1004E0004361703A4155544F4C4556454C3A300A99
:1004F000004361703A5052494E545F4A4F423A317C
:100500000A004361703A50524F47524553533A30B4
:100510000A004361703A4155544F5245504F52546E
:100520005F54454D503A310A004361703A45455099
:10053000524F4D3A310A004649524D574152455F9C
:100540004E414D453A4D61726C696E204372656152
:100550006C69747920334420534F555243455F43AF
:100560004F44455F55524C3A68747470733A2F2F5C
:100570006769746875622E636F6D2F4D61726C6967
:100580006E4669726D776172652F4D61726C696E2E
:100590002050524F544F434F4C5F56455253494F92
:1005A0004E3A312E30204D414348494E455F545913
:1005B00050453A456E6465722D3320455854525566
:1005C0004445525F434F554E543A312055554944A6
:1005D0003A63656465326132662D343161322D349F
:1005E0003734382D396231322D6335356336326612
:1005F00033363766660A002F2F20004D3134352000
:10060000533C696E6465783E206F7574206F662078
:1006100072616E67652028302D31290A0053657498
:1006200074696E672054726176656C2041636365FE
:100630006C65726174696F6E3A20005365747469F9
:100640006E67205265747261637420416363656CE8
:1006500065726174696F6E3A200053657474696ED7
:1006600067205072696E7420416363656C657261C6
:1006700074696F6E3A200053657474696E67205018
:1006800072696E7420616E642054726176656C20AC
:10069000416363656C65726174696F6E3A20002016
:1006A0005A00205900580020204D61783A2000203F
:1006B0005A00205900580020204D696E3A20004F02
:1006C0006E20004F666600536F667420656E64731B
:1006D000746F70733A200000010F150E12FF161789
:1006E0000E13FF03021A14FFFFFF0C04FFFFFF01AC
:1006F000000EFFFF0C190DFF18FFFFFFFFFFFF208B
:10070000643A0020693A0020703A0043290A0061E7
:10071000626C656420286D696E2074656D702000C0
:10072000436F6C64206578747275646573206172C0
:100730006520004F666673657473206170706C6924
:100740006564004572723A20546F6F2066617221B1
:1007500000546F6F206661722066726F6D20726543
:10076000666572656E636520706F696E740A004E0F
:100770006F2063617365206C696768740A00416368
:10078000746976652045787472756465723A2000E4
:10079000556E6B6E6F776E20636F6D6D616E643A30
:1007A00020220062696E004D31313720494E56419A
:1007B0004C494420444154412E004D3131372050A2
:1007C00072696E74696E672E2E2E004730205A258E
:1007D0007300473238205830205930004730205AB3
:1007E000257300473932205A25732045257300624E
:1007F000696E002020506C616E6E6572427566668F
:10080000657242797465733A2000204672656520EE
:100810004D656D6F72793A2000436F6D70696C653C
:10082000643A2044656320313020323031380A0088
:10083000207C20417574686F723A2028456E64658B
:10084000722D33290A00323031382D31312D3238B2
:1008500000204C61737420557064617465643A20A3
:10086000004D61726C696E20312E312E360A004DBA
:1008700061726C696E0020536F66747761726520D7
:1008800052657365740A00205761746368646F670A
:100890002052657365740A002042726F776E206F74
:1008A00075742052657365740A002045787465720A
:1008B0006E616C2052657365740A00506F776572C3
:1008C00055700A0073746172740A006572726F72F7
:1008D0002077726974696E6720746F2066696C6531
:1008E0000A00456E6473746F70732025632025635E
:1008F00020256320256300205A3A0020593A002021
:10090000583A00656E6473746F7073206869743A46
:100910002000446F6E6520736176696E672066699A
:100920006C652E0A004D3239004D36303020486F4C
:1009300074656E6420746F6F20636F6C6420746FD5
:10094000206368616E67652066696C616D656E74B1
:100950000A004B494C4C45442E200053544F5050F4
:1009600045442E20005072696E7465722073746F56
:10097000707065642064756520746F206572726F95
:1009800072732E2046697820746865206572726FD4
:100990007220616E6420757365204D393939207479
:1009A0006F20726573746172742E202854656D70A7
:1009B0006572617475726520697320726573657400
:1009C0002E205365742069742061667465722072EC
:1009D000657374617274696E67290A004E6F204CEA
:1009E000696E65204E756D62657220776974682046
:1009F000636865636B73756D2C204C617374204C58
:100A0000696E653A20004E6F20436865636B7375AD
:100A10006D2077697468206C696E65206E756D62F3
:100A200065722C204C617374204C696E653A20000D
:100A3000636865636B73756D206D69736D61746355
:100A4000682C204C617374204C696E653A20004C10
:100A5000696E65204E756D626572206973206E6FD8
:100A600074204C617374204C696E65204E756D6204
:100A700065722B312C204C617374204C696E653A81
:100A800020004D313130004D3331004D3834205885
:100A90002059205A20450054462072656164206523
:100AA00072726F720A00446F6E65207072696E74A4
:100AB000696E672066696C650A0020496E76616C14
:100AC00069642065787472756465722000000000A6
:100AD00000000000000000000000006B4300006BFD
:100AE0004300007A4357726974696E6720746F20FF
:100AF00066696C653A20006F70656E206661696C8E
:100B000065642C2046696C653A20006F70656E2024
:100B10006661696C65642C2046696C653A20004604
:100B2000696C652073656C65637465640A002053A5
:100B3000697A653A200046696C65206F70656E655C
:100B4000643A20006F70656E206661696C65642C84
:100B50002046696C653A20002066696C653A200081
:100B60004E6F7720002220706F7300222070617218
:100B7000656E743A2200535542524F5554494E45C2
:100B80002043414C4C207461726765743A22004BDB
:100B9000494C4C45442E2000747279696E6720746C
:100BA0006F2063616C6C207375622D67636F646581
:100BB0002066696C6573207769746820746F6F2094
:100BC0006D616E79206C6576656C732E204D415891
:100BD000206C6576656C2069733A0043616E6E6FB8
:100BE00074206F70656E20737562646972200054A2
:100BF000462063617264206F6B0A006F70656E52ED
:100C00006F6F74206661696C65640A00766F6C753D
:100C10006D652E696E6974206661696C65640A0091
:100C20004572726F723A00544620696E697420668C
:100C300061696C0A006175746F25692E67004D3219
:100C400034004D32332025730020746F6F206C6F99
:100C50006E6720657874727573696F6E2070726547
:100C600076656E7465640A0020636F6C6420657835
:100C700074727573696F6E2070726576656E7465D7
:100C8000640A00FFFFFFFFFFFFFFFFFFFFFFFFFF03
:100C9000FFFFFFFFFFFFFFFFFFFFFFFFFFFFFFFF64
:100CA000FFFFFFFFFFFFFFFFFFFFFFFFFFFFFFFF54
:100CB000FFFFFFFFFFFFFFFFFFFFEFFFFFFFFFFF54
:100CC000FFFFFFFFFFFFFFFFFFFFEFEFFFFFFFFF54
:100CD000FFFFFFFFFFFFFFFFFFFFE7DFFFFFFFFF5C
:100CE000FFFFFFFFFFFFFFFFFFFFE7DFFFFFFFFF4C
:100CF000FFFFFFFFFFFFFFFFFFFFE3DFFFFFFFFF40
:100D0000FFFFFFFFFFFFFFFFFFFFF3CFFFFFFFFF2F
:100D1000FFFFFFFFFFFFFFFFFFE1E1CFFFFFFFFF4F
:100D2000FFFFFFFFFFFFFFFE78000003DDFFFFFF77
:100D3000FFFFFFFFFFFFFEFF807E0001EEFFFFFFD2
:100D4000FFFFFFFFFFFFFE7DCFFC0000F77FFFFFEF
:100D5000FFFFFFFFFFFFFF8E060000007BBFFFFFCE
:100D6000FFFFFFFFFFFFFFC0000000007DDFFFFF70
:100D7000FFFFFFFFFFFFFFFC01FE00003EE7FFFF5C
:100D8000FFFFFFFFFFFFFFFFFFFC00031F73FFFFDD
:100D9000FFFFFFFFFFFFFFFFFFF800018F81FFFF55
:100DA000FFFFFFFFFFFFFFFFFFE0000083F9FFFFF2
:100DB000FFFFFFFFFFFFFFFFFF00FC0000F0FFFF52
:100DC000FFFFFFFFFFFFFFFFE00FFFC00000FFFF7F
:100DD000FFFFFFFFFFFFFFFE03FFFFC00000FFFF5D
:100DE000FFFFFFFFFFFFFFFFFFFFF9000000FFFF16
:100DF000FFFFFFFFFFFFFFFFFFFFFC0007C0FFFF3C
:100E0000FFFFFFFFFFFFFFFFFFFFFF0007E0FFFF08
:100E1000FFFFFFFFFFFFFFFFFFFFFFE007F1FFFF07
:100E2000FFFFFFFFFFFFFFFFFFFFFFFC07F9FFFFD3
:100E3000FFFFFFFFFFFFFFFFFFFFFFFF03F9FFFFC4
:100E4000FFFFFFFFFFFFFFFFFFFFFFFF83F9FFFF34
:100E5000FFFFFFFFFFFFFFFFFFFFFFFFC3FFFFFFDE
:100E6000FFFFFFFFFFFFFFFFFFFFFFFFE1FFFFFFB0
:100E7000FFFFFFFFFFFFFFFFFFFFFFFFF0BFFFFFD1
:100E8000FFFFFFFFFFFFFFFFFFFFFFFBF83FFFFF3D
:100E9000FFFFFFFFFFFFFFFFFFFFFFF9F83FFFFF2F
:100EA000FFFFFFFFFFFFFFFFFFFFFF7EF0FFFFFFE2
:100EB000FFFFFFFFFFFFFFFFFFFFFF8E03FFFFFFAF
:100EC000FFFFFFFFFFFFFFFFFFFFFFE01FFFFFFF31
:100ED000FFFFFFFFFFFFFFFFFFFFFFFFFFFFFFFF22
:100EE000FFFFFFFFFFFFFFFFFFFFFFFFFFFFFFFF12
:100EF000FFFFFFFFFFFFFFFFFFFFFFFFFF7FFFFF82
:100F0000FFFFFFFFFFFFFF00007FFFFFF87FFFFFF6
:100F1000FFFFFFFFFFFFFF80007FFFFFE07FFFFF7E
:100F2000FFFFFFFFFFFFFFC3FCFFFFFFF8FFFFFF17
:100F3000FFFFFFFFFFFFFFC3FCFFFFFFF8FFFFFF07
:100F4000FFFFFFFFFFFFFF87FDFFFFFFF1FFFFFF39
:100F5000FFFFFFFFFFFFFF87FFFFFFFFF1FFFFFF27
:100F6000FFFFFFFFFFFFFF0FE7F30FFC23FC3FFF37
:100F7000FFFFFFFFFFFFFF0FEF8007F003F01E00F2
:100F80007FFFFFFFFFFFFE1FCF8187C787C70C00D2
:100F90007FFFFFFFFFFFFE001FC7C78FC79F0F0C1C
:100FA000FFFFFFFFFFFFFE001F878F1F8F1F0F1F19
:100FB000FFFFFFFFFFFFFC3F9F8F8F1F8E001E3F35
:100FC000FFFFFFFFFFFFFC7F3F0F1E3F1E3FFE3F67
:100FD000FFFFFFFFFFFFF87FFF1F1C3F1C7FFC7F11
:100FE000FFFFFFFFFFFFF8FFFF1E1C7E1C7FFC7F43
:100FF000FFFFFFFFFFFFF0FFCE3E3C7E3C7FB8FFD0
:10100000FFFFFFFFFFFFF0FF9E3C387C387E78FF3C
:10101000FFFFFFFFFFFFE1FF3C7C787C783CF1FFA6
:10102000FFFFFFFFFFFFE1F8387878101801F1FFAC
:10103000FFFFFFFFFFFF000060203C007C07807F78
:10104000FFFFFFFFFFFFFFFFFFFFFE1FFE1FFFFF72
:10105000FFFFFFFFFFFFFFFFFFFFFFFFFFFFFFFFA0
:10106000FFFFFFFFFFFFFFFFFFFFFFFFFFFFFFFF90
:10107000FFFFFFFFFFFFFFFFFFFFFFFFFFFFFFFF80
:10108000FFFFFF25753A2530327500253032753A5D
:10109000253032750025756420253032753A2530AB
:1010A0003275005A00590058000920000000000065
:1010B0000000000000000000003FFFF00000000002
:1010C0000000000000000000003800700000000078
:1010D00000000000000000000030FC3000000000B4
:1010E00000000000000000000020FC1000000000D4
:1010F0000000000000000000002078100000000048
:10110000000000000000000000203010000000007F
:101110000000000000000000002C00D0F80180005A
:101120000C1FE00000104100002E31D0480080006C
:10113000123FF00000082080002F7BD043C38CD0EA
:10114000023FF00000082080002F7BD071249267BE
:10115000CC3FF00000104100002E31D041249E40D1
:10116000021FE00000208200002C00D049249040A3
:10117000121FE0000041040000203010FBB3CEE05D
:101180000C3FF00000410400002078100000000037
:10119000003FF000002082000020FC100000000052
:1011A000003FF000001041000030FC300000000063
:1011B000000FC000000000000038007000000000B8
:1011C0000007800000FFFFC0003FFFF000000000AC
:1011D0000003000000FFFFC000000000000000004E
:1011E0000000000000000000003FFFF000000000D1
:1011F0000000000000000000003800700000000047
:1012000000000000000000000033873000000000F4
:101210000000000000000000002787900000000090
:101220000000000000000000002F87D00000000038
:101230000000000000000000002F87D00000000028
:101240000000000000000000002F03D0F801800023
:101250000C1FE000000820800020301048008000B3
:10126000123FF000000410400020781043C38CD0DF
:10127000023FF000000410400020781071249267B3
:10128000CC3FF000000820800020301041249E4018
:10129000021FE00000104100002F03D049249040BD
:1012A000121FE00000208200002F87D0FBB3CEE0A9
:1012B0000C3FF00000208200002F87D000000000CB
:1012C000003FF00000104100002787900000000060
:1012D000003FF0000008208000338730000000004D
:1012E000000FC00000000000003800700000000087
:1012F0000007800000FFFFC0003FFFF0000000007B
:101300000003000000FFFFC0000000005072696E83
:101310007420706175736564004731204631323046
:101320003020583020593000004730205A257300B3
:101330004D31303920532569004D3134302053254B
:1013400069004D3130362053323535004D3130395A
:1013500020532569004D31393020532569005072E2
:10136000696E742061626F72746564005265737592
:101370006D65207072696E740053746F70207072A6
:10138000696E7400506F7765722D4C6F73732052C5
:1013900065636F7665727900496E69742E205446D4
:1013A0002063617264004D3231004E6F205446203C
:1013B00063617264004368616E6765205446206310
:1013C000617264004D3231005072696E7420667231
:1013D0006F6D2054460053746F70207072696E7484
:1013E00000526573756D65207072696E740050618E
:1013F000757365207072696E740053746F7020701D
:1014000072696E7400526573756D65207072696ED5
:10141000740041626F7574205072696E7465720059
:101420005061757365207072696E7400436F6E74DD
:10143000726F6C00507265706172650054756E65F4
:1014400000496E666F2073637265656E004261626B
:101450007973746570205A004D3630302042300068
:101460004368616E67652066696C616D656E7400C6
:101470004261627973746570205A00466C6F770020
:10148000466C6F7700466C6F770046616E20737014
:101490006565640046616E20737065656400466131
:1014A0006E20737065656400426564004265640087
:1014B000426564004E6F7A7A6C65004E6F7A7A6C82
:1014C00065004E6F7A7A6C650053706565640053F1
:1014D00070656564005370656564004D61696E00F8
:1014E00024F4D43050C38E20C2A24017828B7011D6
:1014F000127A910D816CD90AA861E108C758660774
:10150000615143061E4B5D05C145A7041A411104F4
:10151000093D9803713931034036DB02653391028E
:10152000D4305402802E1D02632CEE01752AC501B1
:10153000B028A001102781018F2564012B244B01C5
:10154000E0223401AC211F018D200D01801FFC0021
:10155000841EED00971DDF00B81CD200E61BC600FC
:10156000201BBC00641AB200B219A8000A19A0001E
:101570006A189900D117910040178B00B5168400A6
:1015800031167E00B31579003A157300C7146F0049
:1015900058146A00EE1366008813630025135E007A
:1015A000C7125B006C12570015125400C111510094
:1015B00070114F0021114B00D61049008D104700CB
:1015C0004610440002104200C00F4000800F3E0051
:1015D000420F3C00060F3B00CB0E3800930E370045
:1015E0005C0E3500270E3400F30D3200C10D3100C2
:1015F000900D3000600D2E00320D2D00050D2C00D9
:10160000D90C2B00AE0C2900850C29005C0C27009E
:10161000350C27000E0C2600E80B2400C40B240018
:10162000A00B23007D0B23005A0B2100390B210056
:10163000180B2000F80A1F00D90A1E00BB0A1E0062
:101640009D0A1D00800A1D00630A1C00470A1B003A
:101650002C0A1B00110A1A00F7091A00DD091900EB
:10166000C4091900AB091900920917007B09180079
:10167000630917004C0916003609160020091600E8
:101680000A091500F5081500E0081400CC0814003C
:10169000B8081400A4081400900813007D08120074
:1016A0006B08130058081200460812003408110095
:1016B000230811001208110001081100F0071000A2
:1016C000E0071000D0071000C0071000B0070F009F
:1016D000A107100091070E0083070F0074070F0089
:1016E00065070E0057070E0049070E003B070D0067
:1016F0002E070E0020070D0013070D0006070D0032
:10170000F9060C00ED060D00E0060C00D4060C00F6
:10171000C8060C00BC060C00B0060C00A4060B00AA
:1017200099060C008D060B0082060B0077060B0055
:101730006C060B0061060A0057060B004C060A00F7
:1017400042060A0038060A002E060A0024060A008D
:101750001A060A001006090007060A00FD0509001E
:10176000F4050900EB050900E2050900D9050900A7
:10177000D0050900C7050900BE050900B505080028
:10178000AD050800A50509009C05080094050800A2
:101790008C050800840508007C0508007405080015
:1017A0006C050700650508005D0507005605080083
:1017B0004E050700470507004005080038050700EB
:1017C000310507002A050700230507001C05060050
:1017D000160507000F0507000805060002050700AB
:1017E000FB040600F5040700EE040600E80406000A
:1017F000E2040700DB040600D5040600CF0406005F
:10180000C9040600C3040600BD040600B7040600B0
:10181000B1040500AC040600A6040600A0040500FF
:101820009B04060095040500900406008A04050048
:1018300085040500800406007A040500750405008F
:10184000700405006B0405006604050061040500D2
:101850005C04050057040500520405004D04050012
:1018600048040500430405003E0404003A04050052
:1018700035040500300404002C040500270404008E
:10188000230405001E0404001A04040016040500C5
:10189000110404000D0404000904050004040400FC
:1018A00000040400FC030400F8030400F403040033
:1018B000F0030400EC030400E8030400E403040064
:1018C000E0030400DC030400D8030400D403040094
:1018D000D0030400CC030400C8030300C5030300C5
:1018E00024F404D9201BC40C5C0E9804C4095F02C4
:1018F00065077101F405F900FB04B3004804870093
:10190000C10369005803550003034500BE023A00B5
:101910008402310053022A0029022500040220001B
:10192000E4011C00C8011900AF0117009801140060
:1019300084011300710110006101100051010E00BB
:1019400043010D0036010B002B010B0020010B00A1
:10195000150109000C01090003010800FB00080043
:10196000F3000800EB000700E4000600DE000600BC
:10197000D8000600D2000600CC000500C700050014
:10198000C2000500BD000400B9000400B500040059
:10199000B1000400AD000400A9000400A50003008C
:1019A000A20003009F0004009B00030098000300B6
:1019B0009500020093000300900003008D000200D8
:1019C0008B000300880002008600020084000300F0
:1019D000810002007F0002007D0002007B00020007
:1019E0007900020077000100760002007400020016
:1019F00072000100710002006F0002006D00010022
:101A00006C0002006A00010069000200670001002A
:101A10006600010065000100640002006200010030
:101A200061000100600001005F0002005D00010034
:101A30005C0001005B0001005A0001005900010038
:101A40005800010057000100560001005500010038
:101A50005400010053000000530001005200010037
:101A600051000100500001004F0001004E00000035
:101A70004E0001004D0001004C0001004B00000031
:101A80004B0001004A00010049000100480000002D
:101A90004800010047000100460000004600010028
:101AA0004500000045000100440001004300000023
:101AB000430001004200000042000100410000001C
:101AC00041000100400001003F0000003F00010014
:101AD0003E0000003E0001003D0000003D0001000E
:101AE0003C0000003C0000003C0001003B00000006
:101AF0003B0001003A0000003A00010039000000FC
:101B000039000100380000003800000038000100F2
:101B100037000000370001003600000036000000EA
:101B200036000100350000003500000035000100DE
:101B300034000000340000003400010033000000D5
:101B400033000000330001003200000032000000CA
:101B500032000100310000003100000031000100BE
:101B60003000000030000000300001002F000000B5
:101B70002F0000002F0000002F0001002E000000A9
:101B80002E0000002E0001002D0000002D0000009E
:101B90002D0000002D0001002C0000002C00000092
:101BA0002C0000002C0001002B0000002B00000086
:101BB0002B0000002B0001002A0000002A0000007A
:101BC0002A0000002A00010029000000290000006E
:101BD0002900000029000000290001002800000061
:101BE0002800000028000000280000002800010054
:101BF0002700000027000000270000002700000049
:101C0000270001002600000026000000260000003A
:101C1000260000002600010025000000250000002D
:101C2000250000002500000025000000250001001F
:101C30002400000024000000240000002400000014
:101C40002400010023000000230000002300000006
:101C500023000000230000002300000023000100F7
:101C600022000000220000002200000022000000EC
:101C700022000000220001002100000021000000DD
:101C800021000000210000002100000021000000D0
:101C900021000100200000002000000020000000C2
:101CA00020000000200000002000000020000000B4
:101CB000200001001F0000001F0000001F000000A6
:101CC0001F0000001F0000001F0000001F00010097
:101CD0001E0000001E0000001E0000001E0000008C
:101CE0004D383420582059205A2045006265640A36
:101CF000002C2073797374656D2073746F70706538
:101D00006421204865617465725F49443A20004847
:101D1000656174696E67206661696C656400486519
:101D20006174696E67206661696C6564004865610D
:101D300074696E67206661696C65640048656174EA
:101D4000696E67206661696C6564005072656865DC
:101D5000617420504C4120456E6400507265686586
:101D6000617420504C410050726568656174205068
:101D70004C4120426564005072657061726500508C
:101D80007265686561742041425320456E6400505D
:101D900072656865617420414253005072656865E0
:101DA0006174204142532042656400507265706145
:101DB000726500473238004D343238005072656821
:101DC00065617420504C4100436F6F6C646F776E97
:101DD000004368616E67652066696C616D656E744D
:101DE0000044697361626C6520737465707065721C
:101DF00073004D38340053657420686F6D65206F33
:101E0000666673657473005072656865617420411D
:101E10004253004175746F20686F6D65004D6F7699
:101E2000652061786973004D61696E004D6F76655C
:101E30002058004D6F76652059004D6F7665205A09
:101E4000004578747275646572004D6F7665203058
:101E50002E316D6D004D6F766520316D6D004D6FCB
:101E600076652031306D6D004D6F76652061786943
:101E700073004578747275646572004D6F766520E5
:101E80005A004D6F76652059004D6F7665205800D9
:101E90004578747275646572004D6F7665205A00DE
:101EA0004D6F76652059004D6F7665205800507251
:101EB000657061726500202F002042403A0020408A
:101EC0003A0048656174696E6720646F6E652E0024
:101ED00020573A0045787472756465722025730046
:101EE000456E6465722D332072656164792E002021
:101EF0005A3A0020593A0020436F756E7420583AC0
:101F00000020453A00205A3A0020593A00583A0039
:101F100023646566696E65202044454641554C54EE
:101F20005F4B64200023646566696E65202044452C
:101F30004641554C545F4B69200023646566696EC9
:101F400065202044454641554C545F4B702000505D
:101F50004944204175746F74756E652066696E69B9
:101F600073686564212050757420746865206C6105
:101F70007374204B702C204B6920616E64204B647D
:101F800020636F6E7374616E74732066726F6D2060
:101F900062656C6F7720696E746F20436F6E66693F
:101FA0006775726174696F6E2E680A00504944202B
:101FB0004175746F74756E65206661696C65642126
:101FC0002074696D656F75740A005049442041752D
:101FD000746F74756E65206661696C656421205448
:101FE000656D706572617475726520746F6F2068BD
:101FF0006967680A00204B643A2000204B693A2048
:1020000000204B703A20000A20436C6173736963AF
:1020100020504944200A002054753A2000204B7576
:102020003A2000206D61783A2000206D696E3A20D8
:102030000020643A200020626961733A2000F401B4
:102040000000F401000064000000E803000000004C
:10205000FA430000FA430000A0400000C84100001D
:10206000A0420000A0420000C8430000BA42204441
:102070000020490020204D33303120500050494489
:102080002073657474696E67733A0A0020460020F5
:10209000420020480020204D3134352053004D614E
:1020A00074657269616C2068656174757020706117
:1020B00072616D65746572733A0A00205A00205986
:1020C0000020204D323036205800486F6D65206F5B
:1020D00066667365743A0A00204500205A0020594C
:1020E0000020580020420020540020204D3230357E
:1020F000205300416476616E6365643A20533C6D01
:10210000696E5F66656564726174653E20543C6DFE
:10211000696E5F74726176656C5F66656564726135
:1021200074653E20423C6D696E5F7365676D656ED8
:10213000745F74696D655F6D733E20583C6D6178A6
:102140005F78795F6A65726B3E205A3C6D61785F9B
:102150007A5F6A65726B3E20453C6D61785F655FB2
:102160006A65726B3E0A0020540020520020204D08
:10217000323034205000416363656C65726174696C
:102180006F6E2028756E6974732F7332293A205050
:102190003C7072696E745F616363656C3E20523C93
:1021A000726574726163745F616363656C3E205431
:1021B0003C74726176656C5F616363656C3E0A00B6
:1021C000204500205A0020590020204D3230312077
:1021D00058004D6178696D756D20416363656C656C
:1021E000726174696F6E2028756E6974732F733213
:1021F000293A0A00204500205A0020590020204D8D
:102200003230332058004D6178696D756D206665F8
:10221000656472617465732028756E6974732F73B9
:10222000293A0A00204500205A0020590020204D5C
:1022300039322058005374657073207065722075B0
:102240006E69743A0A0020204D3230302044300A42
:102250000020204D323030204400204469736162F8
:102260006C65640A0046696C616D656E7420736507
:102270007474696E67733A0020204D3134392043FD
:10228000203B20556E69747320696E2043656C7322
:102290006975730A002020473231202020203B201E
:1022A000556E69747320696E206D6D0A007A5F6DDA
:1022B000696E3A2000795F6D696E3A2000785F6D33
:1022C000696E3A20005265706F7274696E6720659E
:1022D0006E6473746F70207374617475730A004C4C
:1022E0006F61642073657474696E677300496E6909
:1022F0007469616C697A6520454550524F4D0053B1
:10230000746F72652073657474696E6773004669D3
:102310006C616D656E74004D6F74696F6E0054650D
:102320006D7065726174757265004D61696E005003
:102330007265686561742041425320636F6E660068
:102340005072656865617420504C4120636F6E6601
:102350000046616E2073706565640046616E20738F
:10236000706565640046616E207370656564004247
:1023700065640042656400426564004E6F7A7A6C61
:1023800065004E6F7A7A6C65004E6F7A7A6C6500E4
:10239000436F6E74726F6C0053746F726520736557
:1023A0007474696E6773004265640042656400423C
:1023B0006564004E6F7A7A6C65004E6F7A7A6C6550
:1023C000004E6F7A7A6C650046616E2073706565A9
:1023D000640046616E2073706565640046616E201E
:1023E00073706565640054656D70657261747572B3
:1023F00065005654726176206D696E0056547261A4
:1024000076206D696E005654726176206D696E009B
:10241000566D696E00566D696E00566D696E005698
:102420006D6178204500566D6178204500566D61DC
:1024300078204500566D6178205A00566D617820ED
:102440005A00566D6178205A00566D617820590007
:10245000566D6178205900566D6178205900566D8F
:102460006178205800566D6178205800566D61786B
:102470002058004D6F74696F6E00416D6178204582
:1024800000416D6178204500416D6178205A00411E
:102490006D6178205A00416D6178205900416D616D
:1024A00078205900416D6178205800416D61782095
:1024B0005800412D74726176656C00412D74726113
:1024C00076656C00412D7265747261637400412DF4
:1024D0007265747261637400416363656C0041638B
:1024E00063656C004D6F74696F6E0056652D6A658B
:1024F000726B0056652D6A65726B0056652D6A65B4
:10250000726B00567A2D6A65726B00567A2D6A6579
:10251000726B0056792D6A65726B0056792D6A656B
:10252000726B0056792D6A65726B0056782D6A655C
:10253000726B0056782D6A65726B0056782D6A654D
:10254000726B004D6F74696F6E00457374657073C4
:102550002F6D6D004573746570732F6D6D005A7328
:10256000746570732F6D6D005A73746570732F6D81
:102570006D005973746570732F6D6D0059737465B8
:1025800070732F6D6D005873746570732F6D6D00CF
:102590005873746570732F6D6D004D6F74696F6E35
:1025A0000053746570732F6D6D004A65726B004146
:1025B0006363656C65726174696F6E0056656C6FFC
:1025C0006369747900436F6E74726F6C0046696C56
:1025D0002E204469612E0046696C2E204469612ECC
:1025E000004F6666004F6E20004520696E206D6DBD
:1025F0003300436F6E74726F6C0043616E6E6F7464
:1026000020656E746572207375626469723A200089
:10261000022E2E000152656672657368004D616975
:102620006E00426175643A20313135323030004DF0
:10263000656C7A692028437265616C697479290038
:102640004578747275646572733A203100777777D4
:102650002E637265616C69747933642E636E004514
:102660006E6465722D33004D61726C696E20312E7F
:10267000312E3600437265616C69747920334400F1
:102680004D61726C696E0020204E6F7A7A6C653AEB
:10269000200020004261636B004D696E696D756DAD
:1026A0002054656D70206973203137302E004865E5
:1026B0006174696E67206661696C65640045787451
:1026C00072756465206D6F726500526573756D6516
:1026D000207072696E7400524553554D45204F501D
:1026E00054494F4E533A0020204E6F7A7A6C653A27
:1026F00020006368616E6765006F662074686520FE
:1027000066696C616D656E74005761697420666FEF
:1027100072207374617274005052494E54205041BB
:10272000555345440020204E6F7A7A6C653A20005C
:10273000200066696C616D656E7420756E6C6F61EA
:1027400064005761697420666F72005052494E549C
:10275000205041555345440020204E6F7A7A6C65D5
:102760003A20002000506C656173652077616974C0
:102770002E2E2E0048656174696E67206E6F7A7A1E
:102780006C65005052494E54205041555345440009
:1027900020204E6F7A7A6C653A20002000686561CF
:1027A00074206E6F7A7A6C652E0050726573732098
:1027B000627574746F6E20746F005052494E5420CD
:1027C0005041555345440020204E6F7A7A6C653A4B
:1027D0002000746F20636F6E74696E75652E2E2EE7
:1027E00000616E6420707265737320627574746F1B
:1027F0006E00496E736572742066696C616D656EFA
:1028000074005052494E54205041555345440020C5
:10281000204E6F7A7A6C653A2000200066696C6100
:102820006D656E74206C6F61640057616974206619
:102830006F72005052494E54205041555345440048
:1028400020204E6F7A7A6C653A2000200066696C11
:10285000616D656E7420657874727564650057618A
:10286000697420666F72005052494E542050415591
:1028700053454400746F20726573756D6500576130
:10288000697420666F72207072696E7400505249CC
:102890004E54205041555345440070012C01900185
:1028A0002701B0012201C0011D01F0011801100231
:1028B000130130020E016002090190020401C002FE
:1028C000FF000003FA004003F5008003F000D0038E
:1028D000EB002004E6007004E100E004DC004005A9
:1028E000D700C005D2004006CD00D006C800800742
:1028F000C3003008BE00F008B900C009B400B00A37
:10290000AF00B00BAA00D00CA500000EA000500F25
:102910009B00C01096005012910000148C00C0154E
:102920008700B0178200B0197D00D01B7800001E10
:10293000730040206E0090226900F024640040275C
:102940005F0090295A00E02B5500102E50002030D7
:102950004B0010324600E033410090353C00103708
:10296000370070383200A0392D00B03A2800A03B63
:102970002300603C1E00103D1900903D1400103EE5
:102980000F00703E0A00C03E0500003F0000403FBF
:10299000FBFF803FF6FFC03FF1FF544845524D41D9
:1029A0004C2052554E4157415900546865726D6133
:1029B0006C2052756E61776179004572723A204DD4
:1029C000494E54454D5020424544004572723A20CC
:1029D0004D494E54454D50004D494E54454D5020A3
:1029E000747269676765726564004572723A204D5A
:1029F000415854454D5020424544004572723A209A
:102A00004D415854454D50004D415854454D50206E
:102A1000747269676765726564007C3C3E5E2B3D3D
:102A20003F2F5B5D3B2C2A225C0000060900FE075D
:102A30000192032120FFFF08FF07FF0000000600AE
:102A4000000107070602008080808080008003026A
:102A500002060105A0A00507070600005050F85027
:102A6000F850500507070600002078A07028F020D5
:102A7000050707060000C0C8102040981805070782
:102A80000600006090A040A89068020303060104BD
:102A9000C04080030707060100204080808040205E
:102AA000030707060100804020202040800505051F
:102AB00006000120A870A8200505050600012020B9
:102AC000F820200203030602FFC040800501010632
:102AD0000003F8020202060200C0C0050505060058
:102AE00001081020408005070706000070888888CC
:102AF00088887003070706010040C040404040E05E
:102B0000050707060000708808708080F805070731
:102B1000060000F81020100808F00507070600005E
:102B200010305090F81010050707060000F880F0EC
:102B300008088870050707060000708080F0888804
:102B400070050707060000F8081020202020050760
:102B500007060000708888708888700507070600DF
:102B60000070888878080870020505060200C0C059
:102B700000C0C00206060602FFC0C000C0408004BC
:102B800007070600001020408040201005030306C0
:102B90000002F800F804070706010080402010201A
:102BA00040800507070600007088081020002005F7
:102BB000070706000070880868A8A87005070706C0
:102BC0000000708888F8888888050707060000F0EC
:102BD0008888F08888F005070706000070888080E4
:102BE000808870050707060000F08888888888F0CC
:102BF000050707060000F88080F08080F8050707C9
:102C0000060000F88080F08080800507070600003D
:102C1000708880B888887005070706000088888853
:102C2000F8888888010707060200808080808080FD
:102C30008005070706000038101010109060050787
:102C4000070600008890A0C0A0908805070706002E
:102C500000808080808080F805070706000088D803
:102C6000A8888888880507070600008888C8A8986B
:102C7000888805070706000070888888888870059E
:102C80000707060000F08888F080808005070706A7
:102C9000000070888888A89068050707060000F083
:102CA0008888F0A09088050707060000788080706B
:102CB0000808F0050707060000F820202020202043
:102CC0000507070600008888888888887005070738
:102CD00006000088888888885020050707060000BD
:102CE0008888888888A850050707060000888850CB
:102CF0002050888805070706000088888850202013
:102D000020050707060000F80810204080F8030798
:102D100007060100E08080808080E0050505060050
:102D2000018040201008030707060100E020202052
:102D30002020E00503030600042050880501010659
:102D40000000F802020206020580400505050600A3
:102D50000070087888780507070600008080B0C8F2
:102D60008888F005050506000070808088700507DA
:102D70000706000008086898888878050505060099
:102D8000007088F880700507070600003048E040B2
:102D90004040400506060600FF70888878087005E8
:102DA00007070600008080B0C888888801070706EA
:102DB0000200800080808080800308080601FF20D8
:102DC0000020202020A040040707060000808090FB
:102DD000A0C0A090030707060100C040404040404B
:102DE000E0050505060000D0A8A8A8A80505050669
:102DF0000000B0C88888880505050600007088882E
:102E000088700506060600FFF08888F080800506B9
:102E1000060600FF78888878080805050506000082
:102E2000B0C880808005050506000070807008F03D
:102E30000407070600004040E0404040300505051B
:102E400006000088888898680505050600008888BF
:102E50008850200505050600008888A8A8500505AB
:102E60000506000088502050880506060600FF88E9
:102E70008888780870050505060000F8102040F8DD
:102E8000030707060100204040804040200107075B
:102E90000602008080808080808003070706010092
:102EA00080404020404080050202060002689000F9
:102EB0000000060000000000060000000000060000
:102EC00000000000060000000000060000000000F6
:102ED00006000000000006000000000006000000E0
:102EE00000000600000000000600000000000600D0
:102EF00000000000060000000000060000000000C6
:102F000006000000000006000000000006000000AF
:102F1000000006000000000006000000000006009F
:102F20000000000006000000000006000000000095
:102F3000060000000000060000000000060000007F
:102F4000000006000000000006000000000006006F
:102F50000000000006000000000006000000000065
:102F6000060000000000060000000000060000004F
:102F7000000006000000000006000001070706022E
:102F80000080008080808080050707060000207098
:102F9000A8A0A87020050707060000304040E040C8
:102FA00050A80505050600008870507088050707C1
:102FB000060000885020F820F820010707060200CC
:102FC000808080008080800508080600003048204E
:102FD0005050209060030101060107A00507070675
:102FE0000000F888B8B8B888F8050707060001702F
:102FF0000878887800F80505050600012850A050DB
:1030000028050303060001F808080202020602066A
:103010004080050707060000F888A88898A8F805EA
:103020000101060006F804040406000360909060A5
:103030000507070600002020F8202000F8040505F9
:1030400006000360902040F0030505060003E02021
:10305000E020E002020206020640800508080600A1
:10306000FF8888888898E880800507070600007830
:10307000989878181818020202060202C0C00202CC
:10308000020602FF408003050506000340C04040E1
:10309000E0050707060001708888887000F80505BC
:1030A00005060001A0502850A0050707060000886B
:1030B00090A858B808080507070600008890B84887
:1030C000982038050808060000C040C048D83808D5
:1030D00008050707060000200020408088700508CA
:1030E000080600004020007088F888880508080657
:1030F00000001020007088F8888805080806000085
:103100002050007088F8888805080806000068903C
:10311000007088F88888050808060000500070884C
:1031200088F888880508080600002050207088F874
:1031300088880507070600003860A0B8E0A0B80539
:1031400008080600FF7088808088702060050808E5
:10315000060000402000F880F080F805080806000E
:1031600000081000F880F080F8050808060000202C
:103170005000F880F080F80507070600005000F8BE
:1031800080F080F8030808060100804000E040401D
:1031900040E0030808060100204000E0404040E015
:1031A00003080806010040A000E0404040E003079B
:1031B00007060100A000E0404040E00507070600C8
:1031C00000704848E8484870050808060000689004
:1031D0000088C8A898880508080600004020708864
:1031E0008888887005080806000010207088888884
:1031F00088700508080600002050007088888870D4
:103200000508080600006890007088888870050826
:10321000080600005000708888888870050505063B
:10322000000188502050880508080600FF1070A88B
:10323000A8A8A870400508080600004020888888D3
:10324000888870050808060000102088888888880B
:1032500070050808060000205000888888887005DE
:1032600008080600005000888888888870050808CB
:1032700006000010208850202020200509090600A3
:10328000FFC040704848704040E00408080601FF55
:10329000609090A09090E080050808060000402013
:1032A0000070087888780508080600001020007073
:1032B0000878887805080806000020500070087813
:1032C00088780508080600006890007008788878FB
:1032D0000507070600005000700878887805080880
:1032E0000600002050207008788878050606060041
:1032F00000D02878A0A8500506060600FF70808838
:103300007020600508080600004020007088F880E2
:10331000700508080600001020007088F88070050D
:1033200008080600002050007088F8807005070724
:1033300006000050007088F880700308080601003D
:1033400080400040C04040E00308080601002040E3
:103350000040C04040E003080806010040A00040D3
:10336000C04040E0030707060100A00040C0404005
:10337000E0050707060000A040A010788870050847
:1033800008060000689000B0C8888888050808060C
:10339000000040200070888888700508080600003A
:1033A00010200070888888700508080600002050EA
:1033B0000070888888700508080600006890007012
:1033C0008888887005070706000050007088888884
:1033D000700505050600012000F800200507070616
:1033E00000FF1070A8A8A87040050808060000405B
:1033F00020008888889868050808060000102000CA
:103400008888889868050808060000205000888889
:103410008898680507070600005000888888986823
:103420000509090600FF102000888888F808700444
:1034300007070601FFC04060506040E0050808062D
:1034400000FF500088888878087000002100240060
:1034500027002A0000002200250028002B00000081
:1034600020002300260029000202020202020202BA
:103470000404040404040404030303030303030314
:103480000101010101010101010204081020408035
:10349000010204081020408001020408102040802E
:1034A0008040201008040201000000010200090A07
:1034B00000000000040308070000000000000000F6
:1034C0000000000000000000526573656E643A2041
:1034D000006F6B0020746F6F206C6F6E67206578D3
:1034E00074727573696F6E2070726576656E74653F
:1034F000640A0020636F6C64206578747275736968
:103500006F6E2070726576656E7465640A00627510
:1035100073793A2070617573656420666F722069F3
:103520006E7075740A00627573793A2070617573F4
:10353000656420666F7220757365720A0062757328
:10354000793A2070726F63657373696E670A004B16
:10355000494C4C45442E20004B494C4C206361752E
:1035600073656420627920746F6F206D75636820C5
:10357000696E6163746976652074696D65202D20BC
:1035800063757272656E7420636F6D6D616E643AFF
:103590002000506C6561736520726573657400501E
:1035A00052494E5445522048414C544544005072B3
:1035B000696E7465722068616C7465642E206B6935
:1035C0006C6C28292063616C6C6564210A00000022
:1035D0000000000000000000000000004842000061
:1035E000484200008040000000005761726E696E22
:1035F000673A20486F6D696E672042756D70204490
:10360000697669736F72203C20310A00020204005F
:1036100000A0400000A0400000004000006B4300FC
:10362000006B4300007A43FFFFFF656E717565759F
:1036300065696E672022006563686F3A002E0A0094
:103640006F70656E206661696C65642C2046696CDC
:10365000653A200057726974696E6720746F20663E
:10366000696C653A20004572726F722077726974D6
:10367000696E6720746F20454550524F4D210A00F6
:103680002E0A0046696C652862696E292064656CA3
:10369000657465640044656C6574696F6E28626961
:1036A0006E29206661696C65640000060900FE00F1
:1036B0000000000001090008FE00000508080600DF
:1036C0000040F0C88888987810050808060000C0F7
:1036D000F88888888888F80505050600012030F8F4
:1036E00030200508080600002070F820202020E087
:1036F0000509090600FF2070A8A8B8888870200571
:1037000009090600FFE080C0B0A828302828050974
:10371000090600FFF8A88888888888A8F8050A0A9A
:103720000600FE205050505088A8A888700303035C
:1037300006000340A0403DDF55DE11241FBECFEF41
:10374000D0E4DEBFCDBF13E0A0E0B1E0ECE8F3EEE3
:1037500001E00BBF02C007900D92A837B107D9F75F
:1037600029E1A8E7B3E001C01D92A937B207E1F74C
:103770001BE1CCE9DBE104C02197FE010E9429F1A5
:10378000CB39D107C9F70E943CD40C94B9F10C9401
:1037900000002F923F924F925F926F927F928F9292
:1037A0009F92AF92BF92CF92DF92EF92FF920F93D0
:1037B0001F93CF93DF93CDB7DEB7C056D1090FB6B5
:1037C000F894DEBF0FBECDBF0091C70820E6029F70
:1037D00080011124095B184F8091C40B80FF1AC02F
:1037E000E7E3F6E384917F013FEFE31AF30A8111E7
:1037F00002C0780104C00E94053AF701F3CFD70157
:103800008D917D01882319F00E94053AF8CF8AE056
:103810000E94053A81E090E09093521280935112F9
:103820001092A3031092A2038FE38093A603109239
:10383000A5031092A40384E0E2E9F3E0DF011D9206
:103840008A95E9F7F80180810F5F1F4F8032D1F32D
:103850008E34C9F4818190ED980F9A3020F08D322A
:1038600011F08B3281F4DF0112969D012F5F3F4FE3
:103870008C9180538A3010F4D901F7CFFD01119655
:1038800080818032D9F3F0935A12E09359127F016C
:10389000BFEFEB1AFB0A10816AE270E0C7010E94D9
:1038A00081F1009731F0FC01319780818032E1F3A2
:1038B00011821D3431F1143521F1173411F1E7E390
:1038C000F6E384918F010F5F1F4F882321F00E9440
:1038D000053AF801F6CF6091591270915A1280E9B9
:1038E00097E00E94714782E20E94053A8AE00E94B6
:1038F000053A10925212109251120E942FB60C9457
:103900007233C701FC01208101962032D9F3205384
:103910002A30A8F61093A60380E090E06AE0319682
:10392000DF0111972C91022E000C330B205331092B
:10393000689FA001699F500D1124C901840F951F34
:10394000208120532A3058F39093A5038093A40339
:10395000DF0131962C912032D9F31D34A9F48E3138
:103960009105D1F03CF487319105B1F08C3191058E
:1039700059F412C0853791053CF08737910564F002
:10398000803AE3E09E0741F00091591260E070E058
:10399000EE24E394F12C43C0B093A303A093A203BD
:1039A0007FC0213209F445C03FEBB32EB20E49E18E
:1039B000A42EAB1408F45FC0AF01FA0130814F5F51
:1039C0005F4F3032D1F340ED430F4A3008F047C02B
:1039D000AF018B2C912C640123E0D594C7942A95D8
:1039E000E1F796012E563C4F69012B2D2770D70128
:1039F00002C0AA0FBB1F2A95E2F79D01D6013C9198
:103A0000232B2C9341155105A1F1401BD401A8583B
:103A1000BC4F4C93208121542A3190F5DF01FD01E8
:103A200031962C912111BDCF7093A3036093A20313
:103A300037C01D3409F0B8CF8032910509F0B4CFFA
:103A4000F093A303E093A20363E270E0CF010E942E
:103A500081F1009709F4A9C6DC011C9221C043ED55
:103A6000430F423008F4B4CF3B3211F00C94B03124
:103A7000AFCF40E0CBCF6115710561F6BD01CACF74
:103A8000DF01AD014F5F5F4F2C9120532A3010F4BE
:103A9000DA01F7CFFD01119620812032D9F3BECF94
:103AA0008091A6038D3409F480C6843511F40C94FA
:103AB0006D31873409F003CF2090A4033090A50323
:103AC000B4E02B16310409F40DC54CF437FC11CFCA
:103AD00080912201F2E02F16310404F517C02AE587
:103AE0002216310409F4F9C534F44CE124163104EA
:103AF00009F43DC5FECE5BE52516310409F4F0C599
:103B00008CE52816310409F4EFC5F3CE882309F4B7
:103B1000F0CE0E94CC7C0E9453B5EBCE882309F4F2
:103B2000E8CE0E94CC7C82E50E94E739882309F424
:103B30003CC10E9485394B015C0120E030E0A901C5
:103B40000E943AE7882309F45CC120915318309110
:103B5000541840915518509156182DA73EA74FA7BD
:103B600058AB8091571890915818A0915918B0915E
:103B70005A1889AB9AABABABBCAB209177123091A2
:103B800078124091791250917A1229AF3AAF4BAF27
:103B90005CAF80917B1290917C12A0917D12B091CC
:103BA0007E128DAB9EABAFABB8AF6DA57EA58FA5DA
:103BB00098A90E943AE781110DC02DA93EA94FA9ED
:103BC00058AD69A97AA98BA99CA90E943AE78823D4
:103BD00009F417C111E092E02916310409F010E050
:103BE00020E030E0A901C501B4010E943AE7881F36
:103BF0008827881F181759F020E030E040E85FEB75
:103C000029962CAF3DAF4EAF5FAF29970AC080E039
:103C100090E0A0E8BFE329968CAF9DAFAEAFBFAFF9
:103C200029972DA53EA54FA558A969AD7AAD8BADB5
:103C30009CAD0E94F3ED25966CAF7DAF8EAF9FAF2C
:103C4000259729A93AA94BA95CA96DA97EA98FA995
:103C500098AD0E94F3ED6B017C0125962CAD3DAD36
:103C60004EAD5FAD2597CA01B9010E94A0E72B01B7
:103C70003C01A7019601C701B6010E94A0E79B0184
:103C8000AC01C301B2010E94F4ED0E94A2F02196A2
:103C90006CAF7DAF8EAF9FAF219720E030E040E06A
:103CA0005FE30E94A0E72B013C01A5019401C5013F
:103CB000B4010E94A0E74B015C01A3019201C30182
:103CC000B2010E94A0E79B01AC01C501B4010E94B2
:103CD000F3ED0E94A2F029962CAD3DAD4EAD5FAD47
:103CE00029970E94A0E74B015C01C701B6019058DB
:103CF00021962CAD3DAD4EAD5FAD21970E94EEEE0D
:103D0000A50194010E94A0E76B017C0129AD3AADA9
:103D10004BAD5CAD6DA57EA58FA598A90E94F4ED75
:103D200020E030E040E05FE30E94A0E79B01AC01AF
:103D3000C701B6010E94F4ED2DA53EA54FA558A9D7
:103D40000E94F3ED6B017C012DA93EA94FA958AD4E
:103D500069A97AA98BA99CA90E94F4ED20E030E022
:103D600040E05FE30E94A0E72B013C0121962CADCF
:103D70003DAD4EAD5FAD219725966CAD7DAD8EAD61
:103D80009FAD25970E94EEEEA50194010E94A0E749
:103D90009B01AC01C301B2010E94F4ED29A93AA92B
:103DA0004BA95CA90E94F3ED14C089E40E94E73995
:103DB000882329F00E9485396B017C0103C0C12C46
:103DC000D12C76018AE40E94E7398823E9F00E9429
:103DD000853969AF7AAF8BAF9CAF20E030E0A901A5
:103DE000C701B6010E943AE781111BC020E030E014
:103DF000A90169AD7AAD8BAD9CAD0E943AE7811106
:103E000010C0E0E2FCE05BC320E030E0A901C701A4
:103E1000B6010E943AE78823A1F319AE1AAE1BAE91
:103E20001CAEA701960150582DA73EA74FA758AB2F
:103E300089AD9AADABADBCADB05889AB9AABABAB6D
:103E4000BCABCA01B9010E94A0E74B015C0129A9E2
:103E50003AA94BA95CA9CA01B9010E94A0E79B013C
:103E6000AC01C501B4010E94F4ED0E94A2F0699674
:103E70006CAF7DAF8EAF9FAF699720915318309193
:103E8000541840915518509156182DAB3EAB4FAB7E
:103E900058AFA70196016DA97EA98FA998AD0E9480
:103EA000F4ED29966CAF7DAF8EAF9FAF29978091CF
:103EB000571890915818A0915918B0915A182196F6
:103EC0008CAF9DAFAEAFBFAF21979C01AD0169AD87
:103ED0007AAD8BAD9CAD0E94F4ED2D966CAF7DAFAD
:103EE0008EAF9FAF2D97209177123091781240912D
:103EF000791250917A1261962CAF3DAF4EAF5FAF01
:103F0000619729962CAD3DAD4EAD5FAD2997619679
:103F10006CAD7DAD8EAD9FAD61970E94F3ED6B01F1
:103F20007C0180917B1290917C12A0917D12B091C6
:103F30007E1265968CAF9DAFAEAFBFAF65972D96E5
:103F40002CAD3DAD4EAD5FAD2D97BC01CD010E94B6
:103F5000F3ED4B015C0120915B1830915C184091AE
:103F60005D1850915E186D962CAF3DAF4EAF5FAFB0
:103F70006D9760917F127091801280918112909163
:103F800082120E94F3ED25966CAF7DAF8EAF9FAF8E
:103F90002597A70196016DA57EA58FA598A90E94DA
:103FA000A0E72B013C01A501940169A97AA98BA97D
:103FB0009CA90E94A0E79B01AC01C301B2010E9431
:103FC000F4ED2B013C01A50194016DA57EA58FA503
:103FD00098A90E94A0E74B015C01A701960169A97D
:103FE0007AA98BA99CA90E94A0E79B01AC01C501FD
:103FF000B4010E94F3EDA30192010E9473EE6B01E4
:104000007C0120E030E0A9010E943AE787FF0AC066
:104010002BED3FE049EC50E4C701B6010E94F4EDFE
:104020006B017C0132E02316310451F42BED3FE0AB
:1040300049EC50E4C701B6010E94F3ED6B017C012D
:1040400020E030E0A901C701B6010E943AE78111E2
:1040500026C061962CAD3DAD4EAD5FAD61976DA9AB
:104060007EA98FA998AD0E943AE7811118C0659684
:104070002CAD3DAD4EAD5FAD659721966CAD7DAD80
:104080008EAD9FAD21970E943AE7811108C01BEDCC
:10409000C12E1FE0D12E19ECE12E10E4F12EA70164
:1040A000960169966CAD7DAD8EAD9FAD69970E940E
:1040B000A0E79B01AC010E94A0E74B015C012596A3
:1040C0002CAD3DAD4EAD5FAD2597CA01B9010E9443
:1040D000A0E79B01AC01C501B4010E94F4ED0E9470
:1040E000A2F04B015C012FE632E143E85AE30E9463
:1040F0003AE787FDDEC1C501B4010E9496EF0E9438
:1041000067EF7EAF6DAF672B21F421E030E03EAF6B
:104110002DAF40905F1850906018609061187090BB
:104120006218ADACBEACB50180E090E00E943FE704
:104130004B015C019B01AC01C701B6010E94EEEE90
:104140006DAB7EAB8FAB98AFA501940125966CAD9E
:104150007DAD8EAD9FAD25970E94EEEE69966CAF5A
:104160007DAF8EAF9FAF6997A301920160918312DB
:104170007091841280918512909186120E94F3EDC5
:10418000A50194010E94EEEEA1966CAF7DAF8EAFBB
:104190009FAFA1972DA93EA94FA958ADCA01B9015A
:1041A0000E94A0E720E030E040E05FE30E94A0E74B
:1041B0009B01AC0160E070E080E89FE30E94F3EDBA
:1041C00025966CAF7DAF8EAF9FAF25976D962CADCA
:1041D0003DAD4EAD5FAD6D9729873A874B875C87C4
:1041E0004D865E866F86788A60911B0170911C01F6
:1041F000072E000C880B990B0E9441E720910601C5
:104200003091070140910801509109010E94A0E7F7
:104210002AE037ED43E25CE30E94A0E761966CAFD1
:104220007DAF8EAF9FAF61970E94F4AB9B01AC0155
:1042300028533F4F4F4F5F4F65962CAF3DAF4EAF6A
:104240005FAF65974DA45EA46FA478A82224239441
:10425000312CB9E1DB2EADACBEACA214B30409F431
:1042600014C10E94C7620E94F4ABDC01CB016596C9
:104270002CAD3DAD4EAD5FAD6597821B930BA40B8E
:10428000B50BB7FD11C00E94F4AB9B01AC012853E4
:104290003F4F4F4F5F4F65962CAF3DAF4EAF5FAF77
:1042A000659780E00E94EBB2DA94DD2009F441C00A
:1042B00029A93AA94BA95CA925966CAD7DAD8EAD17
:1042C0009FAD25970E94A0E74B015C019201A301DD
:1042D0006DA97EA98FA998AD0E94A0E7A5019401C0
:1042E0000E94F4ED7B018C019201A30125966CAD37
:1042F0007DAD8EAD9FAD25970E94A0E74B015C017F
:1043000029A93AA94BA95CA96DA97EA98FA998AD45
:104310000E94A0E79B01AC01C501B4010E94F3ED2E
:104320002B013C01C701D80189AB9AABABABBCAB4D
:104330004DC0B10180E090E00E943FE72DA93EA969
:104340004FA958AD0E94A0E74B015C010E94E9EE25
:104350006B017C01C501B4010E9494F04B015C012A
:10436000A70196016DA57EA58FA598A90E94A0E73B
:104370002B013C01A501940169AD7AAD8BAD9CADDB
:104380000E94A0E7A30192010E94F4ED2B013C01E1
:10439000A50194016DA57EA58FA598A90E94A0E70F
:1043A0004B015C01A701960169AD7AAD8BAD9CAD67
:1043B0000E94A0E79B01AC01C501B4010E94F3ED8E
:1043C00069AB7AAB8BAB9CABF9E1DF2E9201A30119
:1043D00029966CAD7DAD8EAD9FAD29970E94F4ED11
:1043E00069837A838B839C8329A93AA94BA95CA909
:1043F0002D966CAD7DAD8EAD9FAD2D970E94F4EDE9
:104400006D837E838F83988769962CAD3DAD4EADCD
:104410005FAD699769857A858B859C850E94F4EDEF
:1044200069877A878B879C87A1962CAD3DAD4EAD71
:104430005FADA1976D857E858F8598890E94F4ED8B
:104440006D877E878F87988B80912F01882321F03D
:10445000CE0101960E94FBB0C090760B6196ECAC49
:10446000FDAC0EAD1FAD61979E01235F3F4FAE01C6
:10447000475F5F4FBE016B5F7F4FCE0101960E9489
:1044800026493FEF231A330AE6CEC090760B619699
:10449000ECACFDAC0EAD1FAD619723E832E14FE708
:1044A00052E16BE772E187E792E10E9426490E94A0
:1044B0000B380E94FA391DCA0E94053AF80184910E
:1044C0008F010F5F1F4F8111F7CFE3ECF2E0849172
:1044D0008F010F5F1F4F882309F40BCA0E94053A12
:1044E000F801F5CF80E50E94E739882329F00E9482
:1044F00041396B017C0103C0C12CD12C760183E5CD
:104500000E94E739882361F00E94853920E030E07D
:104510004AE754E40E94A0E70E9467EF6B017C0128
:104520000E94B36580913D01811105C060E089ED75
:1045300092E00E9480B00E94FA3980912307909106
:104540002407A0912507B0912607C80ED91EEA1EA0
:10455000FB1E0E94F4ABDC01CB018C199D09AE0956
:10456000BF09B7FFC6C980E00E94EBB2F2CF0E943C
:10457000B3658091060190910701A0910801B09167
:10458000090180939E0390939F03A093A003B0938F
:10459000A10380911B0190911C0190939D03809336
:1045A0009C0384E690E090931C0180931B010E9481
:1045B000FA3981E08093AD0388E50E94B839E82E8E
:1045C00089E50E94B839082F8AE50E94B839F82E8B
:1045D000E11005C0011105C011E0182705C0011147
:1045E00002C010E001C0182F0E940138111105C04F
:1045F000E11003C0002309F444C020E030E040EAA9
:1046000050E46091671270916812809169129091E4
:104610006A120E94F4ED60937F127093801280936F
:1046200081129093821220915B1830915C18409116
:104630005D1850915E180E9454F018167CF419828F
:104640001A821B821C829E012F5F3F4F4FE752E16F
:1046500067E578E183E598E10E940F37111105C005
:10466000E11003C0011107C00CC080E090E00E947F
:104670008DB11123B9F381E090E00E948DB1111149
:1046800002C0FF2021F082E090E00E948DB10E94E4
:104690003739809117118093AD0380919E039091DB
:1046A0009F03A091A003B091A10380930601909372
:1046B0000701A0930801B093090180919C03909198
:1046C0009D0390931C0180931B010E94FA3983E0A3
:1046D00080930A010E9485750CC910929B0309C939
:1046E00081E080939B0305C985E40E94E739B82ED9
:1046F000811102C00E94B36564E9862E61E0962EA6
:1047000073E5C72E78E1D72EEBE6EE2EE2E1FE2E22
:1047100000E010E0A12C33243394D4018D914D019D
:104720000E94E739882359F1F60140805180628068
:1047300073800E948539D6016D937D938D939C93F0
:1047400013970330E1F0023011F43092B003A3016B
:1047500092010E94F3ED9B01AC01F7016081718130
:10476000828193810E94F4EDD7016D937D938D93A7
:104770009C931397C8010E942E38AA24A3940F5F1C
:104780001F4FB4E0CB0ED11CE4E0EE0EF11C043060
:10479000110519F6AA2019F00E94373903C0B1108B
:1047A0000E94C7CF0E948575A4C88091A4039091F0
:1047B000A5038137910509F427C60CF0C5C08B34D9
:1047C000910509F43BC50CF056C08831910509F4F8
:1047D00098C284F58231910509F4FDC69CF497FDD9
:1047E00088C8823091050CF4ADC1419709F081C8A9
:1047F00060E083E193E00E9480B05E985E98159837
:104800005E9877C88531910509F464C234F4449701
:1048100009F06FC8EBE2F3E01DC28631910509F49F
:104820005DC2479709F065C88091A2039091A303E8
:10483000FC015EC28C31910509F4CCC25CF48A3172
:10484000910509F46BC20CF088C2109228130E94E3
:1048500074D04FC88F31910509F4F9C324F44E97F1
:1048600009F4C2C246C88032910509F4A6C38A97EA
:1048700009F4A3C43EC88836910509F4EBC40CF0D2
:1048800044C08235910509F49DC634F58D349105F7
:1048900009F4DCC40CF4D6C48135910509F029C8AB
:1048A0000E94D0A10E94B3650E9478B21092E915CF
:1048B0001092E8150E9445D01092B2031092B103F5
:1048C00068EE73E080E090E00E9495AF60E08FE4D6
:1048D00094E00E9480B00DC88435910509F47BC630
:1048E0000CF474C68535910509F4ACC68C35910578
:1048F00011F00C94791C24E9C22E21E0D22E33E66B
:10490000E32E38E1F32E10E0B8C68C36910509F499
:1049100073C53CF48A36910509F423C60CF4BFC56F
:104920003FC68E36910509F4E1C40CF4FEC58F36FE
:10493000910509F4EEC48037910511F00C94791CAF
:1049400081E294E00E9482B2833D910509F4F3C0B4
:104950000CF06DC08139910511F40C949A2C6CF512
:104960008637910511F40C94522CA4F483379105E9
:1049700009F4E5C00CF401C78537910511F00C94DA
:10498000791C60E08091A2039091A3030E949EB0E5
:104990000C94791C8837910511F40C948D2C14F427
:1049A0000C94892C8937910511F40C94942C8C3833
:1049B000910509F456C50C94791C893C910511F4B4
:1049C0000C94692D7CF48E3B910509F4B2C5883CAA
:1049D000910511F40C94152D8B39910511F00C945F
:1049E000791C7AC58C3C910511F40C94A52D6CF4BE
:1049F0008B3C910511F00C94791C74E9E72E71E061
:104A0000F72E0EE211E10C94952D8D3C910511F4D9
:104A10000C94112E8E3C910511F00C94791C64E9D4
:104A2000E62E61E0F62E00E010E00C947E2E8A392E
:104A3000F1E09F0709F4E4C47CF58D3231E093077F
:104A400011F40C94882F8CF48D3D910511F40C9485
:104A50003E2F823E910511F40C945A2F8C3D910506
:104A600011F00C94791C0C942F2F8F3251E0950784
:104A700011F40C947E3014F40C9427308336B1E09A
:104A80009B0709F454C08039914011F00C94791CB3
:104A90000E94B3650C94791C863FF1E09F0711F4E6
:104AA0000C942B3154F5843F31E0930711F40C94AE
:104AB000233114F00C9427318C3A914011F00C946E
:104AC000791CE7E7FBE0FEA7EDA78FE5882E82E1E2
:104AD000982E93E5A92E98E1B92E24EFC22E20E15D
:104AE000D22E33E2232E31E0332E4EECE42E45E37A
:104AF000F42E00E010E00C9482308835A2E09A0792
:104B000011F40C943E313CF4873F914011F40C9425
:104B10002F310C94791C803AF3E09F0709F48AC284
:104B2000873E934011F40C9459310C94791CE0E2C7
:104B3000FCE00C944531E7E3F6E30C94972EE7E3B1
:104B4000F5E024C6A090A203B090A30380E50E94E4
:104B5000E739882359F00E9441396B017C0111E04B
:104B6000672B682B692B31F410E004C010E0C12CD6
:104B7000D12C760183E50E94E7398823F1F00E9469
:104B8000853920E030E04AE754E40E94A0E70E9423
:104B900067EF6B017C01111112C0672B682B692B29
:104BA00071F4A114B10459F0D5018C91882339F026
:104BB00061E0C5010E949EB007C0112391F360E03F
:104BC00080E093E00E9480B083E090E090935212E6
:104BD0008093511281E080939F120E94B3650E94DE
:104BE000FA39C114D104E104F104E1F08091230702
:104BF00090912407A0912507B0912607C80ED91ED1
:104C0000EA1EFB1E0E94F4ABDC01CB018C199D094E
:104C1000AE09BF09B7FF1AC080919F1281110C9491
:104C2000BA3114C080919F12882321F080E00E9445
:104C3000EBB2F8CF8091281360E0882319F081EF60
:104C400092E002C082EE92E00E9480B010929F1229
:104C50000C94791C84918F010F5F1F4F882321F0E2
:104C60000E94053AF801F6CF1092CD151092CC159E
:104C700089E593E10E94C3A48BE1E9E5F3E1DE015C
:104C8000159601900D928A95E1F7809157139091B6
:104C900058139C838B838CE991E09A83898340E04D
:104CA00050E0BE016F5F7F4F85E792E00E94B24205
:104CB000CE0101960E9470B2ECE1F3E084918F0185
:104CC0000F5F1F4F882311F40C94791C0E94053A42
:104CD000F801F4CF0E9417410C94791C109228130C
:104CE000109229130C94791C203209F41082319609
:104CF00020812111F9CF40E061E00E94BD440C9475
:104D0000791C0E9445D080912913882319F081E0F5
:104D1000809328130E9405D00C94791C809129134C
:104D2000882311F40C94791C83E50E94E7398823C9
:104D300011F40C94791C0E945139AB01BC014093D1
:104D4000C3155093C4156093C5157093C61583EFB2
:104D500094E10E9485CC0C94791C809129138111D7
:104D600003C0EEE4F3E02AC0ECE3F3E084918F01AA
:104D70000F5F1F4F882321F00E94053AF801F6CFFC
:104D80006091C3157091C4158091C5159091C61599
:104D90004AE00E940C3A8FE20E94053A6091BF15EA
:104DA0007091C0158091C1159091C2154AE00E9482
:104DB0000C3A8AE00E94053A0C94791C84918F0188
:104DC0000F5F1F4F882311F40C94791C0E94053A41
:104DD000F801F4CF40E060E08091A2039091A3033A
:104DE0000E94BD440C94791C80912913882311F4EE
:104DF0000C94791C83EF94E10E9452CC83EF94E1F0
:104E00000E9465A31092271310922613E090A2032C
:104E1000F090A30380912913882311F40C94791C3A
:104E2000109228138091F614882321F083EF94E1E7
:104E30000E9465A3FE0131966F01CF010E94F2C965
:104E400085E593E19093751380937413D7018C914A
:104E50008F3209F060C06FE270E0C7010E9481F1FB
:104E60008C010F5F1F4F09F45CC06FE270E0C80156
:104E70000E9481F15C01009709F454C008171907DA
:104E800008F050C04C01801A910AA401B801CE016B
:104E900080960E94AAF1E0E2F0E0EC0FFD1FE80D21
:104EA000F91D10828E01005E1F4FF80181918F0164
:104EB000882319F00E94053AF8CF8AE00E94053A4B
:104EC00060917413709175136115710511F06C5F29
:104ED0007F4F21E0AE01405E5F4FCE0105960E94FC
:104EE00014A9811112C0BE01605E7F4F85E893E076
:104EF0000E9471478EE20E94053A8AE00E94053ABC
:104F0000C6010E9470B20C94791CD0927513C092A5
:104F100074138501A6CF86E793E190937513809370
:104F2000741387018091741390917513009709F0A1
:104F30000496B8010E94B0CE811103C0EDE6F3E003
:104F400021C0EFE5F3E084917F012FEFE21AF20A2E
:104F5000882321F00E94053AF701F5CFD8018D9101
:104F60008D01882319F00E94053AF8CF8AE00E944B
:104F7000053A1092C3151092C4151092C5151092DF
:104F8000C61516C084917F01BFEFEB1AFB0A882378
:104F900021F00E94053AF701F5CFF80181918F01C8
:104FA000882319F00E94053AF8CF8EE20E94053A54
:104FB000C6010E9470B20C94791C80912813811153
:104FC0000E94B365E090A203F090A30380E50E94E5
:104FD000B839182F882319F00E947539182F80913D
:104FE0002913882311F40C94791C412F61E0C70127
:104FF0000E94BD4483E50E94E739882381F00E9426
:105000005139AB01BC014093C3155093C415609353
:10501000C5157093C61583EF94E10E9485CC8091ED
:105020002913882319F081E08093281311110C941F
:10503000791C70CE8091A2039091A30321E020936C
:10504000271340E060E00E94BD440C94791C0E944C
:1050500061427B018C0120E831E541E050E00E9493
:1050600090EDC9016DE671E00E9401F14B015C0118
:10507000C801B70120E13EE040E050E00E9490ED21
:10508000CA01B90128E130E040E050E00E9490ED13
:10509000762E672EC62ED72E5CE3252E312C412C82
:1050A000512CC801B701A20191010E9490EDF62E8A
:1050B000E72ECA01B901A20191010E9490EDCB0136
:1050C0008E010F5F1F4F8114910499F0EF92FF92B0
:1050D0007F936F936F927F92BF92AF929F928F92C6
:1050E00081EC93E09F938F931F930F930E94D2E6DE
:1050F00013C0A114B104B1F0EF92FF927F936F93AC
:105100006F927F92BF92AF9281EB93E09F938F93C8
:105110001F930F930E94D2E60FB6F894DEBF0FBE26
:10512000CDBF30C0CD2879F0EF92FF927F936F937F
:105130006F927F9285EA93E09F938F931F930F93D3
:105140000E94D2E6E9CF892B69F0EF92FF927F931C
:105150006F938DE993E09F938F931F930F930E941A
:10516000D2E6DACFEF92FF9289E993E09F938F9393
:105170001F930F930E94D2E60F900F900F900F9005
:105180000F900F9060E0C8010E949EB0E7E3F6E345
:1051900084917F01BFEFEB1AFB0A882321F00E9464
:1051A000053AF701F5CFB80185ED93E00E9471470C
:1051B0008AE00E94053A0C94791C83E50E94E73945
:1051C000882311F40C94791C0E946139E82E80E543
:1051D0000E94E739882311F40C94791C0E945139FC
:1051E000162FC62ED72ED7FE02C00C94791CE7EDE1
:1051F000F6E08FEF96E02491121303C0E0E2FCE0AA
:1052000009C031968E179F07B1F70C94BF310E94E9
:10521000053AF80184918F010F5F1F4F8111F7CF7D
:10522000E2EEF3E084918F010F5F1F4F882311F4AA
:105230000C94791C0E94053AF801F4CF0E9405D025
:105240000C94791C0E9474D00C94791C0E940BBFA2
:105250000C94791C88E690E00E94793A81110C94B4
:10526000791C8091C40B83FF02C00C94791C83E5E8
:105270000E94E7398823B1F10E9485390E9460EFCE
:10528000CB010E9405B00E94853920E030E04AEA57
:1052900052E40E943AE718163CF00E940BBF60E00F
:1052A0008DEF93E00E9480B00E9485392091BB1160
:1052B0003091BC114091BD115091BE110E9454F02B
:1052C000181684F484E092E09F938F9381EF93E02B
:1052D0009F938F931F920E9497420F900F900F9071
:1052E0000F900F900E94AC470C94791C8EE40E94A2
:1052F000E739882311F40C94791C0E94513960938A
:105300004D1270934E1280934F12909350120C9442
:10531000791C83E50E94B839882359F083E50E94FF
:10532000E739882319F00E94613901C080E0809339
:10533000C40BE7E3F6E384918F010F5F1F4F8111E8
:1053400003C0EAE1F4E004C00E94053AF801F3CF9B
:1053500084918F010F5F1F4F882321F00E94053A2F
:10536000F801F6CF8091C40B811103C0E6E1F4E0AF
:1053700034C04CE0C42E44E0D42EE12CF12C20E0CB
:105380008091C40B90E00E2C02C0959587950A94ED
:10539000E2F780FF17C0BB24B394B20E222319F0AA
:1053A0008CE20E94053AF60185919491FC0184916A
:1053B0008F010F5F1F4F882321F00E94053AF801EB
:1053C000F6CF2B2DEFEFEE1AFE0AF2E0CF0ED11C36
:1053D00035E0E316F104A1F60AC084918F010F5F56
:1053E0001F4F882321F00E94053AF801F6CF8AE08A
:1053F0000E94053A0C94791C109218010C94791CA7
:105400000E942C750C94791C83E50E94E739811168
:1054100003C0E7E3F6E30DC00E94613980933601D3
:105420008D3310F40C94791C8CE3809336010C942A
:10543000791C84918F010F5F1F4F882321F00E94F8
:10544000053AF801F6CF4091360150E060E070E097
:105450008AE294E00E941E478AE00E94053A0C947A
:10546000791C8091C40B83FF02C00C94791C83E5E6
:105470000E94E739882311F40C94791C0E94853925
:105480000E9460EF6739710514F066E970E070936F
:10549000E7156093E6150E9484A10C94791C89E6B7
:1054A00090E00E94793A811111C0E1E3F4E0849127
:1054B0008F010F5F1F4F882321F00E94053AF801EA
:1054C000F6CF0E9444768AE00E94053A109252126A
:1054D000109251120C94723383E50E94E7398823AD
:1054E00011F40C94791C0E946139809357128D330A
:1054F00018F08CE3809357120E94F4AB6B017C018F
:105500002091571230E0A8EEB3E00E94E4EDC60E01
:10551000D71EE81EF91EC0925312D0925412E09288
:105520005512F09256120C94791C0E94A27A0C9497
:10553000791C8091C40B83FF02C00C94791C60E03D
:1055400082E494E00E9480B083E50E94E73989AF4D
:1055500081112EC782E50E94E739811129C70C9479
:10556000791C83E50E94E739882339F00E9451397C
:105570008B016F3F710519F010F00FEF10E080E51F
:105580000E94E739811106C01093E9150093E815D0
:105590000C94791C0E94613981110C94791CF4CF10
:1055A00080E50E94E739811106C01092E91510923A
:1055B000E8150C94791C0E945139672B11F00C945A
:1055C000791CF3CF10929A030C94791C81E080939C
:1055D0009A030C94791C83E50E94E7398823A1F093
:1055E0000E94853920E030E04AE754E40E94A0E7B9
:1055F0000E9467EF609337017093380180933901FF
:1056000090933A010C94791C88E50E94B839811175
:105610000C942B3389E50E94B83981110C942B33FB
:105620008AE50E94B83981110C942B3385E40E94DD
:10563000B83981110C942B330E94B3650E9478B263
:105640000C94791C83E50E94B839882311F40C94DA
:10565000791C0E94853920E030E04AE754E40E943A
:10566000A0E70E9467EF60935B1270935C128093D7
:105670005D1290935E120C94791CD6018D916D0190
:105680000E94B839882309F46DC0133009F063C053
:105690000E9485394B015C0120E030E040EA51E492
:1056A0000E943AE787FF4EC0A501940160916F18F0
:1056B0007091701880917118909172180E94EEEE9E
:1056C0002B013C019B01AC0160916B1170916C113D
:1056D00080916D1190916E110E94A0E760936B1103
:1056E00070936C1180936D1190936E11A3019201D0
:1056F00060913A1170913B1180913C1190913D1154
:105700000E94A0E760933A1170933B1180933C1183
:1057100090933D116091690B70916A0B80916B0BB6
:1057200090916C0B0E943FE7A30192010E94A0E7B9
:105730000E9467EF6093690B70936A0B80936B0B09
:1057400090936C0B80926F1890927018A0927118C1
:10575000B092721807C00E948539F7016083718387
:10576000828393831F5FF4E0EF0EF11C143009F085
:1057700084CF0E94FA480C94791C0E94B3650E9461
:1057800085750C94791C0E94053AF80184918F016B
:105790000F5F1F4F8111F7CFE9E2F5E003C00E94D0
:1057A000053AF80184918F010F5F1F4F8111F7CFE8
:1057B000E2E1F5E003C00E94053AF80184918F010F
:1057C0000F5F1F4F8111F7CFE2E0F5E003C00E94A9
:1057D000053AF80184918F010F5F1F4F8111F7CFB8
:1057E000E1EFF4E003C00E94053AF80184918F01D3
:1057F0000F5F1F4F8111F7CFE0EEF4E003C00E946E
:10580000053AF80184918F010F5F1F4F8111F7CF87
:10581000E1EDF4E003C00E94053AF80184918F01A4
:105820000F5F1F4F8111F7CFECEBF4E003C00E9434
:10583000053AF80184918F010F5F1F4F8111F7CF57
:10584000E6EAF4E003C00E94053AF80184918F0172
:105850000F5F1F4F8111F7CFE1E9F4E003C00E9411
:10586000053AF80184918F010F5F1F4F8111F7CF27
:10587000E4E7F4E003C00E94053AF80184918F0147
:105880000F5F1F4F8111F7CFECE5F4E084918F019A
:105890000F5F1F4F882311F40C94791C0E94053A66
:1058A000F801F4CF85E40E94B839882381F00E9482
:1058B0007539882361F0E7E3F6E384918F010F5F88
:1058C0001F4F882321F00E94053AF801F6CF81E4AA
:1058D0000E94B839882381F00E947539882361F0CD
:1058E000E7EFF5E084918F010F5F1F4F882321F0D0
:1058F0000E94053AF801F6CF0091A2031091A3038C
:10590000D8018D918D01882309F471CD0E94053A4B
:10591000F7CF0E9400800C94791C81E08093AD0346
:10592000809317110C94791C1092AD0310921711EB
:105930000C94791C83E50E94E739882319F00E94B2
:10594000513902C060E070E08B011127023011056F
:10595000DCF0E0E2FCE084918F010F5F1F4F8111CA
:1059600003C0EBEFF5E004C00E94053AF801F3CF65
:1059700084918F010F5F1F4F882311F40C94791CC1
:105980000E94053AF801F4CF88E40E94E7398823A1
:10599000A9F00E9451396A3A71053CF06530B1E0D6
:1059A0007B072CF064E071E002C06AEA70E0F80165
:1059B000EE0FFF1FE25EFE4E7183608386E40E945D
:1059C000E7398823A9F00E945139F801EE0FFF1F33
:1059D000EE5DFE4E718360836F3F710519F014F028
:1059E0006FEF70E077FF02C060E070E0718360836A
:1059F00082E40E94E739882311F40C94791C0E94F8
:105A000051396530710534F0683871052CF067E85C
:105A100070E002C065E070E0000F111FF801E65E63
:105A2000FE4E718360830C94791C88EC90E00E9498
:105A3000793A81110C94791C84E40E94B839882346
:105A400009F443C00E9485396B017C0111E020E01C
:105A500030E0A9010E943AE7811101C010E01093E3
:105A6000731120E030E0A901C701B6010E943AE7B6
:105A7000882359F10091960310E00E948539000FA8
:105A8000111F000F111FF801E159FE4E6083718351
:105A90008283938320E030E0A90160916F117091BF
:105AA000701180917111909172110E943AE78111E9
:105AB0000CC080E090E0A0EEBFE380936F11909364
:105AC0007011A0937111B09372110E94AFB00C9439
:105AD000791CE4E9EE2EE1E0FE2E0EE311E1FEE496
