:100000000C94AD1D0C94D71D0C94D71D0C94D71DCA
:100010000C94D71D0C94D71D0C94D71D0C94D71D90
:100020000C94D71D0C94D71D0C94D71D0C94D71D80
:100030000C94D71D0C9408680C94D71D0C94D71DF4
:100040000C94D71D0C94D6A00C941CAE0C94D71D08
:100050000C9497400C94D71D0C94D71D0C94D71D6D
:100060000C94D71D0C94D71D0C94D71D0C94D71D40
:100070000C94D71D0C94D71D0C94D71D0C94D71D30
:100080000C94D71D0C94D71D0C94D71D50AC53ACB9
:1000900046AC4AAC6AAC6AAC57AC5BAC61AC65AC24
:1000A0008BAD90AD95AD9FADCDADCDADA9ADB1ADA5
:1000B000B9ADC3AD6ED547D47ED4AAD57ED47ED497
:1000C0007ED47ED47ED47ED47ED47ED47ED47ED4A0
:1000D0007ED47ED47ED47ED47ED47ED47ED47ED490
:1000E0007ED47ED47ED47ED47ED47ED47ED47ED480
:1000F000A4D57ED47ED47ED47ED47ED47ED47ED449
:100100007ED47DD57ED47ED47ED47ED47ED47ED45F
:100110007ED47ED47ED47ED4C1D57BD4084AD73B4E
:100120003BCE016E84BCBFFDC12F3D6C74319ABDC6
:1001300056833DDA3D00C77F11BED9E4BB4C3E91EA
:100140006BAAAABE000000803F05A84CCDB2D44ED9
:10015000B93836A9020C50B9918688083CA6AAAADB
:100160002ABE000000803F004E414E494E4954597E
:10017000494E46CDCCCC3D0AD7233C17B7D1387772
:10018000CC2B329595E6241FB14F0A000020410088
:1001900000C84200401C4620BCBE4CCA1B0E5AAED2
:1001A000C59D7400407A10F35A00A0724E180900E1
:1001B00010A5D4E80000E87648170000E40B5402CC
:1001C0000000CA9A3B000000E1F505000080969807
:1001D00000000040420F000000A086010000001057
:1001E0002700000000E80300000000640000000099
:1001F000000A00000000000100000000002C76D87A
:1002000088DC674F0823DFC1DFAE59E1B1B796E55F
:10021000E3E453C63AE651997696E8E6C28426EBC3
:10022000898C9B62ED407C6FFCEFBC9C9F40F2BAD6
:10023000A56FA5F490055A2AF75C936B6CF9676D6E
:10024000C11BFCE0E40D47FEF520E6B500D0ED90C3
:100250002E0300943577050080841E080000204E90
:100260000A000000C80C333333330F986E12831129
:1002700041EF8D2114893BE65516CFFEE6DB18D100
:10028000844B381BF77C1D901DA4BBE424203284D2
:10029000725E228100C9F124ECA1E53D27434F4D58
:1002A0004D554E49434154494F4E004452595255C1
:1002B0004E004552524F525300494E464F0045435F
:1002C000484F0047322F47332062616420706172CB
:1002D000616D65746572730A00536C6565702E2ECE
:1002E0002E00A4A5A6A700526573756D696E6720E0
:1002F0007072696E74005761697420666F72207540
:100300007365722E2E2E004E6F206D6F76652E0057
:10031000456E642066696C65206C6973740A0042DE
:100320006567696E2066696C65206C6973740A0084
:100330005446207072696E74696E672062797465C4
:1003400020004E6F74205446207072696E74696E7E
:10035000670A0046696C652064656C657465643A7B
:100360000044656C6574696F6E206661696C6564D4
:100370002C2046696C653A20006F70656E206661BE
:10038000696C65642C2046696C653A2000256973A8
:100390000025696D20256973002569682025696D30
:1003A0002025697300256964202569682025696D09
:1003B00020256973002569792025696420256968ED
:1003C0002025696D20256973005072696E74207450
:1003D000696D653A200050726F74656374656420BE
:1003E00050696E0A004578747275646572202573D1
:1003F00000A4A5A6A700BE02B902B202AB029D02EC
:100400006F66660044454255473A004B494C4C459F
:10041000442E20004D3131332053006F6B00426574
:100420006420646F6E652E0020573A004265642098
:1004300048656174696E672E00456E6465722D3380
:10044000204F66662E004361703A454D4552474540
:100450004E43595F5041525345523A300A0043616E
:10046000703A434153455F4C494748545F425249B3
:100470004748544E4553533A300A004361703A544A
:100480004F47474C455F4C49474854533A300A0060
:100490004361703A534F4654574152455F504F574E
:1004A00045523A300A004361703A4C4556454C4932
:1004B0004E475F444154413A300A004361703A5A12
:1004C0005F50524F42453A300A004361703A4155FD
:1004D000544F4C4556454C3A300A004361703A50EF
:1004E00052494E545F4A4F423A310A004361703AD2
:1004F00050524F47524553533A300A004361703AC5
:100500004155544F5245504F52545F54454D503A07
:10051000310A004361703A454550524F4D3A310A15
:10052000004649524D574152455F4E414D453A4D67
:1005300061726C696E20437265616C6974792033F5
:100540004420534F555243455F434F44455F5552F6
:100550004C3A68747470733A2F2F676974687562C7
:100560002E636F6D2F4D61726C696E4669726D7787
:100570006172652F4D61726C696E2050524F544FFD
:10058000434F4C5F56455253494F4E3A312E30201F
:100590004D414348494E455F545950453A456E6474
:1005A00065722D332045585452554445525F434F90
:1005B000554E543A3120555549443A636564653285
:1005C0006132662D343161322D343734382D396241
:1005D00031322D6335356336326633363766660A17
:1005E000002F2F20004D31343520533C696E646557
:1005F000783E206F7574206F662072616E6765208B
:1006000028302D31290A0053657474696E672054AF
:10061000726176656C20416363656C6572617469B3
:100620006F6E3A200053657474696E67205265746A
:100630007261637420416363656C65726174696F94
:100640006E3A200053657474696E67205072696E4B
:100650007420416363656C65726174696F6E3A20E2
:100660000053657474696E67205072696E742061FE
:100670006E642054726176656C20416363656C65BD
:10068000726174696F6E3A2000205A002059005838
:100690000020204D61783A2000205A00205900584F
:1006A0000020204D696E3A20004F6E004F666600B4
:1006B000536F667420656E6473746F70733A2000B4
:1006C00000010F150E12FF16170E13FF03021A1466
:1006D000FFFFFF0C04FFFFFF01000EFFFF0C190DD1
:1006E000FF18FFFFFFFFFFFF20643A0020693A0078
:1006F00020703A0043290A0061626C656420286D0D
:10070000696E2074656D702000436F6C642065789D
:100710007472756465732061726520004F6666733C
:10072000657473206170706C696564004572723A1B
:1007300020546F6F206661722100546F6F206661D4
:10074000722066726F6D207265666572656E636594
:1007500020706F696E740A004E6F206361736520AC
:100760006C696768740A004163746976652045782E
:100770007472756465723A2000556E6B6E6F776E99
:1007800020636F6D6D616E643A20220062696E00B5
:100790004D31313720494E56414C49442044415453
:1007A000412E004D313137205072696E74696E6789
:1007B0002E2E2E004730205A2573004732382058FD
:1007C00030205930004730205A25730047393220F5
:1007D0005A2573204525730062696E002020506CF5
:1007E000616E6E6572427566666572427974657394
:1007F0003A20002046726565204D656D6F72793A2A
:100800002000436F6D70696C65643A204465632015
:10081000313020323031380A00207C204175746834
:100820006F723A2028456E6465722D33290A0032B2
:100830003031382D31312D323800204C6173742025
:10084000557064617465643A20004D61726C696E24
:1008500020312E312E360A004D61726C696E0020F7
:10086000536F6674776172652052657365740A0010
:10087000205761746368646F672052657365740AFA
:10088000002042726F776E206F7574205265736519
:10089000740A002045787465726E616C205265732D
:1008A00065740A00506F77657255700A0073746141
:1008B00072740A006572726F722077726974696E61
:1008C0006720746F2066696C650A00456E647374F6
:1008D0006F70732025632025632025632025630026
:1008E000205A3A0020593A0020583A00656E647345
:1008F000746F7073206869743A2000446F6E6520CD
:10090000736176696E672066696C652E0A004D32E8
:1009100039004D36303020486F74656E6420746F36
:100920006F20636F6C6420746F206368616E67650D
:100930002066696C616D656E740A004B494C4C45CC
:10094000442E200053544F505045442E20005072E6
:10095000696E7465722073746F707065642064755D
:100960006520746F206572726F72732E20466978ED
:1009700020746865206572726F7220616E642075E4
:100980007365204D39393920746F20726573746135
:1009900072742E202854656D70657261747572656D
:1009A0002069732072657365742E20536574206905
:1009B0007420616674657220726573746172746903
:1009C0006E67290A004E6F204C696E65204E756D6A
:1009D000626572207769746820636865636B7375FC
:1009E0006D2C204C617374204C696E653A20004E6A
:1009F0006F20436865636B73756D20776974682039
:100A00006C696E65206E756D6265722C204C617329
:100A100074204C696E653A2000636865636B73757A
:100A20006D206D69736D617463682C204C61737403
:100A3000204C696E653A20004C696E65204E756DDC
:100A4000626572206973206E6F74204C617374202C
:100A50004C696E65204E756D6265722B312C204C91
:100A6000617374204C696E653A20004D313130005D
:100A70004D3331004D383420582059205A2045003C
:100A800054462072656164206572726F720A004478
:100A90006F6E65207072696E74696E672066696C2E
:100AA000650A0020496E76616C696420657874720D
:100AB0007564657220000000000000000000000066
:100AC000000000006B4300006B4300007A43577244
:100AD0006974696E6720746F2066696C653A2000DE
:100AE0006F70656E206661696C65642C2046696C68
:100AF000653A20006F70656E206661696C65642CD4
:100B00002046696C653A200046696C652073656C07
:100B100065637465640A002053697A653A2000466B
:100B2000696C65206F70656E65643A20006F706552
:100B30006E206661696C65642C2046696C653A209C
:100B4000002066696C653A20004E6F7720002220F5
:100B5000706F73002220706172656E743A220053C8
:100B60005542524F5554494E452043414C4C2074F8
:100B700061726765743A22004B494C4C45442E2003
:100B800000747279696E6720746F2063616C6C20E9
:100B90007375622D67636F64652066696C65732089
:100BA0007769746820746F6F206D616E79206C6551
:100BB00076656C732E204D4158206C6576656C20EF
:100BC00069733A0043616E6E6F74206F70656E20BA
:100BD00073756264697220005446206361726420F8
:100BE0006F6B0A006F70656E526F6F74206661697B
:100BF0006C65640A00766F6C756D652E696E69743C
:100C0000206661696C65640A004572726F723A0011
:100C1000544620696E6974206661696C0A006175CA
:100C2000746F25692E67004D3234004D3233202514
:100C3000730020746F6F206C6F6E6720657874721C
:100C40007573696F6E2070726576656E7465640A7F
:100C50000020636F6C6420657874727573696F6EC1
:100C60002070726576656E7465640A00FFFFFFFF91
:100C7000FFFFFFFFFFFFFFFFFFFFFFFFFFFFFFFF84
:100C8000FFFFFFFFFFFFFFFFFFFFFFFFFFFFFFFF74
:100C9000FFFFFFFFFFFFFFFFFFFFFFFFFFFFFFFF64
:100CA000FFFFFFEFFFFFFFFFFFFFFFFFFFFFFFFF64
:100CB000FFFFFFEFEFFFFFFFFFFFFFFFFFFFFFFF64
:100CC000FFFFFFE7DFFFFFFFFFFFFFFFFFFFFFFF6C
:100CD000FFFFFFE7DFFFFFFFFFFFFFFFFFFFFFFF5C
:100CE000FFFFFFE3DFFFFFFFFFFFFFFFFFFFFFFF50
:100CF000FFFFFFF3CFFFFFFFFFFFFFFFFFFFFFFF40
:100D0000FFFFE1E1CFFFFFFFFFFFFFFFFFFFFFFF5F
:100D1000FE78000003DDFFFFFFFFFFFFFFFFFFFE88
:100D2000FF807E0001EEFFFFFFFFFFFFFFFFFFFEE2
:100D30007DCFFC0000F77FFFFFFFFFFFFFFFFFFFFE
:100D40008E060000007BBFFFFFFFFFFFFFFFFFFFDE
:100D5000C0000000007DDFFFFFFFFFFFFFFFFFFF80
:100D6000FC01FE00003EE7FFFFFFFFFFFFFFFFFF6C
:100D7000FFFFFC00031F73FFFFFFFFFFFFFFFFFFED
:100D8000FFFFF800018F81FFFFFFFFFFFFFFFFFF65
:100D9000FFFFE0000083F9FFFFFFFFFFFFFFFFFF02
:100DA000FFFF00FC0000F0FFFFFFFFFFFFFFFFFF62
:100DB000FFE00FFFC00000FFFFFFFFFFFFFFFFFF8F
:100DC000FE03FFFFC00000FFFFFFFFFFFFFFFFFF6D
:100DD000FFFFFFF9000000FFFFFFFFFFFFFFFFFF26
:100DE000FFFFFFFC0007C0FFFFFFFFFFFFFFFFFF4C
:100DF000FFFFFFFF0007E0FFFFFFFFFFFFFFFFFF19
:100E0000FFFFFFFFE007F1FFFFFFFFFFFFFFFFFF17
:100E1000FFFFFFFFFC07F9FFFFFFFFFFFFFFFFFFE3
:100E2000FFFFFFFFFF03F9FFFFFFFFFFFFFFFFFFD4
:100E3000FFFFFFFFFF83F9FFFFFFFFFFFFFFFFFF44
:100E4000FFFFFFFFFFC3FFFFFFFFFFFFFFFFFFFFEE
:100E5000FFFFFFFFFFE1FFFFFFFFFFFFFFFFFFFFC0
:100E6000FFFFFFFFFFF0BFFFFFFFFFFFFFFFFFFFE1
:100E7000FFFFFFFFFBF83FFFFFFFFFFFFFFFFFFF4D
:100E8000FFFFFFFFF9F83FFFFFFFFFFFFFFFFFFF3F
:100E9000FFFFFFFF7EF0FFFFFFFFFFFFFFFFFFFFF2
:100EA000FFFFFFFF8E03FFFFFFFFFFFFFFFFFFFFBF
:100EB000FFFFFFFFE01FFFFFFFFFFFFFFFFFFFFF41
:100EC000FFFFFFFFFFFFFFFFFFFFFFFFFFFFFFFF32
:100ED000FFFFFFFFFFFFFFFFFFFFFFFFFFFFFFFF22
:100EE000FFFFFFFFFFFF7FFFFFFFFFFFFFFFFFFF92
:100EF00000007FFFFFF87FFFFFFFFFFFFFFFFFFF07
:100F000080007FFFFFE07FFFFFFFFFFFFFFFFFFF8E
:100F1000C3FCFFFFFFF8FFFFFFFFFFFFFFFFFFFF27
:100F2000C3FCFFFFFFF8FFFFFFFFFFFFFFFFFFFF17
:100F300087FDFFFFFFF1FFFFFFFFFFFFFFFFFFFF49
:100F400087FFFFFFFFF1FFFFFFFFFFFFFFFFFFFF37
:100F50000FE7F30FFC23FC3FFFFFFFFFFFFFFFFF47
:100F60000FEF8007F003F01E007FFFFFFFFFFFFE83
:100F70001FCF8187C787C70C007FFFFFFFFFFFFEE2
:100F8000001FC7C78FC79F0F0CFFFFFFFFFFFFFEAC
:100F9000001F878F1F8F1F0F1FFFFFFFFFFFFFFC2B
:100FA0003F9F8F8F1F8E001E3FFFFFFFFFFFFFFC45
:100FB0007F3F0F1E3F1E3FFE3FFFFFFFFFFFFFF87B
:100FC0007FFF1F1C3F1C7FFC7FFFFFFFFFFFFFF821
:100FD000FFFF1E1C7E1C7FFC7FFFFFFFFFFFFFF05B
:100FE000FFCE3E3C7E3C7FB8FFFFFFFFFFFFFFF0E0
:100FF000FF9E3C387C387E78FFFFFFFFFFFFFFE15C
:10100000FF3C7C787C783CF1FFFFFFFFFFFFFFE1B6
:10101000F8387878101801F1FFFFFFFFFFFFFF009D
:101020000060203C007C07807FFFFFFFFFFFFFFF89
:10103000FFFFFFFE1FFE1FFFFFFFFFFFFFFFFFFF82
:10104000FFFFFFFFFFFFFFFFFFFFFFFFFFFFFFFFB0
:10105000FFFFFFFFFFFFFFFFFFFFFFFFFFFFFFFFA0
:10106000FFFFFFFFFFFFFFFFFFFFFFFF25753A2593
:1010700030327500253032753A25303275002575CD
:101080006420253032753A25303275005A005900F7
:1010900058000920000000000000000000000000CF
:1010A00000003FFFF0000000000000000000000012
:1010B0000000380070000000000000000000000088
:1010C000000030FC300000000000000000000000C4
:1010D000000020FC100000000000000000000000E4
:1010E0000000207810000000000000000000000058
:1010F0000000203010000000000000000000000090
:1011000000002C00D0F80180000C1FE0000010410E
:1011100000002E31D048008000123FF0000008206F
:1011200080002F7BD043C38CD0023FF0000008200A
:1011300080002F7BD071249267CC3FF000001041DB
:1011400000002E31D041249E40021FE0000020828A
:1011500000002C00D049249040121FE00000410400
:101160000000203010FBB3CEE00C3FF00000410443
:10117000000020781000000000003FF000002082F6
:10118000000020FC1000000000003FF000001041B3
:10119000000030FC3000000000000FC00000000024
:1011A0000000380070000000000007800000FFFF12
:1011B000C0003FFFF0000000000003000000FFFF40
:1011C000C00000000000000000000000000000005F
:1011D00000003FFFF00000000000000000000000E1
:1011E0000000380070000000000000000000000057
:1011F0000000338730000000000000000000000005
:1012000000002787900000000000000000000000A0
:1012100000002F87D0000000000000000000000048
:1012200000002F87D0000000000000000000000038
:1012300000002F03D0F80180000C1FE00000082000
:10124000800020301048008000123FF000000410A1
:10125000400020781043C38CD0023FF000000410FF
:10126000400020781071249267CC3FF000000820E5
:10127000800020301041249E40021FE000001041F9
:1012800000002F03D049249040121FE0000020826C
:1012900000002F87D0FBB3CEE00C3FF0000020828F
:1012A00000002F87D000000000003FF00000104138
:1012B000000027879000000000003FF00000082099
:1012C000800033873000000000000FC000000000E5
:1012D0000000380070000000000007800000FFFFE1
:1012E000C0003FFFF0000000000003000000FFFF0F
:1012F000C0000000005072696E74207061757365E3
:101300006400473120463132303020583020593087
:1013100000004730205A2573004D313039205325C5
:1013200069004D31343020532569004D313036206D
:1013300053323535004D31303920532569004D3158
:10134000393020532569005072696E742061626FD4
:101350007274656400F4F5CAF300F2F6CAF300A4EF
:10136000A5F4F5CAF3203F00496E69742E20544657
:101370002063617264004D323100F9A80043686156
:101380006E67652054462063617264004D323100FF
:10139000AFB000F2F6CAF300F4F5CAF300F1F2CAF6
:1013A000F300F2F6CAF300F4F5CAF30041626F7578
:1013B00074205072696E74657200F1F2CAF300D83D
:1013C000D900A4A500CFF000ECEDEEEF0042616281
:1013D0007973746570205A004D36303020423000E9
:1013E0004368616E67652066696C616D656E740047
:1013F0004261627973746570205A00CCADD1D2001D
:10140000CCADD1D200CCADD1D200D5D6D1D200D581
:10141000D6D1D200D5D6D1D200C4C700C4C700C42B
:10142000C700D3D400D3D400D3D400D1D200D1D2BA
:1014300000D1D200AEAFB00024F4D43050C38E201F
:10144000C2A24017828B7011127A910D816CD90A59
:10145000A861E108C7586607615143061E4B5D0548
:10146000C145A7041A411104093D9803713931039C
:101470004036DB0265339102D4305402802E1D02C7
:10148000632CEE01752AC501B028A0011027810147
:101490008F2564012B244B01E0223401AC211F0174
:1014A0008D200D01801FFC00841EED00971DDF00C4
:1014B000B81CD200E61BC600201BBC00641AB20098
:1014C000B219A8000A19A0006A189900D117910052
:1014D00040178B00B516840031167E00B3157900D5
:1014E0003A157300C7146F0058146A00EE136600B3
:1014F0008813630025135E00C7125B006C1257004F
:1015000015125400C111510070114F0021114B00F0
:10151000D61049008D1047004610440002104200CA
:10152000C00F4000800F3E00420F3C00060F3B0002
:10153000CB0E3800930E37005C0E3500270E3400BA
:10154000F30D3200C10D3100900D3000600D2E0002
:10155000320D2D00050D2C00D90C2B00AE0C2900EE
:10156000850C29005C0C2700350C27000E0C26008A
:10157000E80B2400C40B2400A00B23007D0B2300E8
:101580005A0B2100390B2100180B2000F80A1F000C
:10159000D90A1E00BB0A1E009D0A1D00800A1D00FC
:1015A000630A1C00470A1B002C0A1B00110A1A00C0
:1015B000F7091A00DD091900C4091900AB0919005F
:1015C000920917007B091800630917004C091600DF
:1015D00036091600200916000A091500F50815003D
:1015E000E0081400CC081400B8081400A408140083
:1015F000900813007D0812006B08130058081200B1
:1016000046081200340811002308110012081100C6
:1016100001081100F0071000E0071000D0071000CB
:10162000C0071000B0070F00A107100091070E00BF
:1016300083070F0074070F0065070E0057070E00A1
:1016400049070E003B070D002E070E0020070D0076
:1016500013070D0006070D00F9060C00ED060D003E
:10166000E0060C00D4060C00C8060C00BC060C00FA
:10167000B0060C00A4060B0099060C008D060B00AA
:1016800082060B0077060B006C060B0061060A0051
:1016900057060B004C060A0042060A0038060A00EC
:1016A0002E060A0024060A001A060A00100609007F
:1016B00007060A00FD050900F4050900EB0509000D
:1016C000E2050900D9050900D0050900C705090090
:1016D000BE050900B5050800AD050800A50509000F
:1016E0009C050800940508008C0508008405080086
:1016F0007C050800740508006C05070065050800F6
:101700005D050700560508004E0507004705070060
:101710004005080038050700310507002A050700C5
:10172000230507001C050600160507000F05070026
:101730000805060002050700FB040600F504070083
:10174000EE040600E8040600E2040700DB040600DD
:10175000D5040600CF040600C9040600C304060031
:10176000BD040600B7040600B1040500AC04060081
:10177000A6040600A00405009B04060095040500CD
:10178000900406008A040500850405008004060014
:101790007A04050075040500700405006B0405005B
:1017A00066040500610405005C040500570405009B
:1017B000520405004D0405004804050043040500DB
:1017C0003E0404003A04050035040500300404001A
:1017D0002C04050027040400230405001E04040053
:1017E0001A04040016040500110404000D0404008A
:1017F000090405000404040000040400FC030400C0
:10180000F8030400F4030400F0030400EC030400F4
:10181000E8030400E4030400E0030400DC03040024
:10182000D8030400D4030400D0030400CC03040054
:10183000C8030300C503030024F404D9201BC40C0F
:101840005C0E9804C4095F0265077101F405F90094
:10185000FB04B30048048700C10369005803550026
:1018600003034500BE023A008402310053022A00FD
:101870002902250004022000E4011C00C80119000F
:10188000AF011700980114008401130071011000CA
:101890006101100051010E0043010D0036010B00E3
:1018A0002B010B0020010B00150109000C010900A0
:1018B00003010800FB000800F3000800EB0007002C
:1018C000E4000600DE000600D8000600D200060094
:1018D000CC000500C7000500C2000500BD000400E3
:1018E000B9000400B5000400B1000400AD0004001C
:1018F000A9000400A5000300A20003009F0004004B
:101900009B00030098000300950002009300030071
:10191000900003008D0002008B000300880002008D
:101920008600020084000300810002007F000200A4
:101930007D0002007B0002007900020077000100B8
:1019400076000200740002007200010071000200C3
:101950006F0002006D0001006C0002006A000100CF
:1019600069000200670001006600010065000100D7
:1019700064000200620001006100010060000100DB
:101980005F0002005D0001005C0001005B000100DF
:101990005A000100590001005800010057000100E1
:1019A00056000100550001005400010053000000E2
:1019B00053000100520001005100010050000100DD
:1019C0004F0001004E0000004E0001004D000100DC
:1019D0004C0001004B0000004B0001004A000100D8
:1019E00049000100480000004800010047000100D4
:1019F00046000000460001004500000045000100CF
:101A000044000100430000004300010042000000C8
:101A100042000100410000004100010040000100BF
:101A20003F0000003F0001003E0000003E000100BA
:101A30003D0000003D0001003C0000003C000000B3
:101A40003C0001003B0000003B0001003A000000A8
:101A50003A000100390000003900010038000000A0
:101A60003800000038000100370000003700010096
:101A7000360000003600000036000100350000008E
:101A80003500000035000100340000003400000083
:101A90003400010033000000330000003300010077
:101AA000320000003200000032000100310000006E
:101AB0003100000031000100300000003000000063
:101AC000300001002F0000002F0000002F00000058
:101AD0002F0001002E0000002E0000002E0001004B
:101AE0002D0000002D0000002D0000002D00010041
:101AF0002C0000002C0000002C0000002C00010035
:101B00002B0000002B0000002B0000002B00010028
:101B10002A0000002A0000002A0000002A0001001C
:101B20002900000029000000290000002900000011
:101B30002900010028000000280000002800000003
:101B400028000000280001002700000027000000F6
:101B500027000000270000002700010026000000E9
:101B600026000000260000002600000026000100DC
:101B700025000000250000002500000025000000D1
:101B800025000000250001002400000024000000C2
:101B900024000000240000002400010023000000B5
:101BA00023000000230000002300000023000000A9
:101BB000230000002300010022000000220000009A
:101BC000220000002200000022000000220001008C
:101BD0002100000021000000210000002100000081
:101BE0002100000021000000210001002000000071
:101BF0002000000020000000200000002000000065
:101C00002000000020000000200001001F00000054
:101C10001F0000001F0000001F0000001F00000048
:101C20001F0000001F0001001E0000001E00000039
:101C30001E0000001E0000004D383420582059209E
:101C40005A2045006265640A002C2073797374651C
:101C50006D2073746F7070656421204865617465D0
:101C6000725F49443A200048656174696E67206676
:101C700061696C65640048656174696E67206661BE
:101C8000696C65640048656174696E6720666169A6
:101C90006C65640048656174696E67206661696C93
:101CA000656400C3C420504C4120456E6400C3C429
:101CB00020504C4100C3C420504C4120C4C700A454
:101CC000A500C3C42041425320456E6400C3C42014
:101CD00041425300C3C42041425320C4C700A4A5BD
:101CE00000473238004D34323800C3C420504C41D4
:101CF00000C8C9004368616E67652066696C616DE4
:101D0000656E7400B5B6B7B8B9BA004D383400BEC8
:101D1000BFBBBCBDC0C100C3C42041425300BBBC5B
:101D2000BD00C1B2CE00AEAFB000C1B2205800C1FC
:101D3000B2205900C1B2205A00CCADBA00C1B220C5
:101D4000302E316D6D00C1B220316D6D00C1B220F9
:101D500031306D6D00C1B2CE00CCADBA00C1B22041
:101D60005A00C1B2205900C1B2205800CCADBA000F
:101D7000C1B2205A00C1B2205900C1B2205800A4FB
:101D8000A500202F002042403A0020403A0048653C
:101D90006174696E6720646F6E652E0020573A008B
:101DA000457874727564657220257300A4A5A6A792
:101DB00000205A3A0020593A0020436F756E742073
:101DC000583A0020453A00205A3A0020593A005823
:101DD0003A0023646566696E652020444546415596
:101DE0004C545F4B64200023646566696E65202057
:101DF00044454641554C545F4B6920002364656659
:101E0000696E65202044454641554C545F4B702017
:101E100000504944204175746F74756E6520666981
:101E20006E6973686564212050757420746865203C
:101E30006C617374204B702C204B6920616E6420A0
:101E40004B6420636F6E7374616E74732066726F7F
:101E50006D2062656C6F7720696E746F20436F6EC2
:101E600066696775726174696F6E2E680A00504901
:101E700044204175746F74756E65206661696C6588
:101E800064212074696D656F75740A00504944209F
:101E90004175746F74756E65206661696C65642147
:101EA0002054656D706572617475726520746F6F12
:101EB00020686967680A00204B643A2000204B695B
:101EC0003A2000204B703A20000A20436C61737363
:101ED000696320504944200A002054753A200020AC
:101EE0004B753A2000206D61783A2000206D696EB4
:101EF0003A200020643A200020626961733A200091
:101F0000F4010000F401000064000000E803000098
:101F10000000FA430000FA430000A0400000C8415E
:101F20000000A0420000A0420000C8430000BA42E6
:101F300020440020490020204D33303120500050F3
:101F400049442073657474696E67733A0A002046C9
:101F50000020420020480020204D3134352053001D
:101F60004D6174657269616C20686561747570207B
:101F7000706172616D65746572733A0A00205A006F
:101F800020590020204D323036205800486F6D65B2
:101F9000206F66667365743A0A00204500205A0077
:101FA00020590020580020420020540020204D32AB
:101FB0003035205300416476616E6365643A205386
:101FC0003C6D696E5F66656564726174653E205440
:101FD0003C6D696E5F74726176656C5F66656564A1
:101FE000726174653E20423C6D696E5F7365676D1A
:101FF000656E745F74696D655F6D733E20583C6DEE
:1020000061785F78795F6A65726B3E205A3C6D61DA
:10201000785F7A5F6A65726B3E20453C6D61785FE0
:10202000655F6A65726B3E0A0020540020520020F2
:10203000204D323034205000416363656C6572611D
:1020400074696F6E2028756E6974732F7332293A24
:1020500020503C7072696E745F616363656C3E20F2
:10206000523C726574726163745F616363656C3E58
:1020700020543C74726176656C5F616363656C3E8D
:102080000A00204500205A0020590020204D3230FF
:10209000312058004D6178696D756D20416363652D
:1020A0006C65726174696F6E2028756E6974732F28
:1020B0007332293A0A00204500205A002059002096
:1020C000204D3230332058004D6178696D756D2098
:1020D0006665656472617465732028756E697473D2
:1020E0002F73293A0A00204500205A002059002069
:1020F000204D39322058005374657073207065721A
:1021000020756E69743A0A0020204D323030204428
:10211000300A0020204D32303020440020446973C2
:1021200061626C65640A0046696C616D656E74205D
:1021300073657474696E67733A0020204D313439C9
:102140002043203B20556E69747320696E204365DF
:102150006C736975730A00202047323120202020DB
:102160003B20556E69747320696E206D6D0A007A8C
:102170005F6D696E3A2000795F6D696E3A20007874
:102180005F6D696E3A20005265706F7274696E6798
:1021900020656E6473746F70207374617475730A54
:1021A000004C6F6164206D656D6F727900496E69D6
:1021B0007469616C697A6520454550524F4D0053F2
:1021C000746F7265206D656D6F72790046696C6120
:1021D0006D656E7400DFB200C9D200AEAFB000C34F
:1021E000C42041425320BEBF00C3C420504C4120F4
:1021F000BEBF00D5D6D1D200D5D6D1D200D5D6D14A
:10220000D200C4C700C4C700C4C700D3D400D3D40D
:1022100000D3D400D8D90053746F7265206D656DFA
:102220006F727900C4C700C4C700C4C700D3D4000C
:10223000D3D400D3D400D5D6D1D200D5D6D1D200B4
:10224000D5D6D1D200C9D2005654726176206D69BC
:102250006E005654726176206D696E00565472613C
:1022600076206D696E00566D696E00566D696E0060
:10227000566D696E00566D6178204500566D617827
:10228000204500566D6178204500566D6178205AD2
:1022900000566D6178205A00566D6178205A0056BC
:1022A0006D6178205900566D6178205900566D6136
:1022B00078205900566D6178205800566D6178205D
:1022C0005800566D6178205800DFB200416D61788A
:1022D000204500416D6178204500416D6178205AAC
:1022E00000416D6178205A00416D617820590041AC
:1022F0006D6178205900416D6178205800416D6111
:1023000078205800412D74726176656C00412D74FF
:10231000726176656C00412D726574726163740040
:10232000412D7265747261637400416363656C0072
:10233000416363656C00DFB20056652D6A65726BA0
:102340000056652D6A65726B0056652D6A65726B65
:1023500000567A2D6A65726B00567A2D6A65726B2B
:102360000056792D6A65726B0056792D6A65726B1D
:102370000056792D6A65726B0056782D6A65726B0E
:102380000056782D6A65726B0056782D6A65726BFF
:1023900000DFB2004573746570732F6D6D00457377
:1023A000746570732F6D6D005A73746570732F6D43
:1023B0006D005A73746570732F6D6D005973746579
:1023C00070732F6D6D005973746570732F6D6D0090
:1023D0005873746570732F6D6D00587374657073E6
:1023E0002F6D6D00DFB20053746570732F6D6D003B
:1023F0004A65726B00416363656C65726174696FF5
:102400006E0056656C6F6369747900D8D9004669AF
:102410006C2E204469612E0046696C2E204469614F
:102420002E004F6666004F6E004520696E206D6D70
:102430003300D8D90043616E6E6F7420656E746589
:1024400072207375626469723A2000022E2E0001B8
:102450005265667265736800AEAFB0004261756424
:102460003A20313135323030004D656C7A692028A0
:10247000437265616C69747929004578747275647A
:102480006572733A2031007777772E6378737733EC
:10249000642E636F6D00456E6465722D33004D616F
:1024A000726C696E20312E312E3600437265616C7C
:1024B000697479203344004D61726C696E0020208C
:1024C0004E6F7A7A6C653A200020004261636B009F
:1024D0004D696E696D756D2054656D70206973204E
:1024E0003137302E0048656174696E672066616916
:1024F0006C65640045787472756465206D6F7265F3
:1025000000526573756D65207072696E7400524576
:1025100053554D45204F5054494F4E533A002020BB
:102520004E6F7A7A6C653A20006368616E67650069
:102530006F66207468652066696C616D656E7400F5
:102540005761697420666F722073746172740050F1
:1025500052494E54205041555345440020204E6F5F
:102560007A7A6C653A2000200066696C616D656E50
:102570007420756E6C6F6164005761697420666FBA
:1025800072005052494E542050415553454400204A
:10259000204E6F7A7A6C653A20002000506C65619D
:1025A000736520776169742E2E2E00486561746909
:1025B0006E67206E6F7A7A6C65005052494E5420D7
:1025C0005041555345440020204E6F7A7A6C653A4D
:1025D0002000200068656174206E6F7A7A6C652E29
:1025E00000507265737320627574746F6E20746F1F
:1025F000005052494E54205041555345440020202C
:102600004E6F7A7A6C653A2000746F20636F6E7437
:10261000696E75652E2E2E00616E64207072657372
:102620007320627574746F6E00496E7365727420E6
:1026300066696C616D656E74005052494E5420504D
:1026400041555345440020204E6F7A7A6C653A20FC
:1026500000200066696C616D656E74206C6F61644A
:10266000005761697420666F72005052494E5420C1
:102670005041555345440020204E6F7A7A6C653A9C
:102680002000200066696C616D656E742065787449
:1026900072756465005761697420666F72005052EC
:1026A000494E542050415553454400746F20726583
:1026B00073756D65005761697420666F7220707262
:1026C000696E74005052494E542050415553454450
:1026D0000070012C0190012701B0012201C0011DF1
:1026E00001F00118011002130130020E016002090D
:1026F0000190020401C002FF000003FA004003F54C
:10270000008003F000D003EB002004E6007004E139
:1027100000E004DC004005D700C005D2004006CD33
:1027200000D006C8008007C3003008BE00F008B91A
:1027300000C009B400B00AAF00B00BAA00D00CA5CD
:1027400000000EA000500F9B00C010960050129188
:102750000000148C00C0158700B0178200B0197DEE
:1027600000D01B7800001E730040206E009022698C
:1027700000F024640040275F0090295A00E02B55A8
:1027800000102E500020304B0010324600E0334144
:102790000090353C001037370070383200A0392DDA
:1027A00000B03A2800A03B2300603C1E00103D19F9
:1027B00000903D1400103E0F00703E0A00C03E0520
:1027C00000003F0000403FFBFF803FF6FFC03FF1AD
:1027D000FF544845524D414C2052554E41574159A6
:1027E00000546865726D616C2052756E6177617915
:1027F000004572723A204D494E54454D5020424595
:1028000044004572723A204D494E54454D50004D9A
:10281000494E54454D50207472696767657265640E
:10282000004572723A204D415854454D5020424562
:1028300044004572723A204D415854454D50004D68
:10284000415854454D5020747269676765726564DC
:10285000007C3C3E5E2B3D3F2F5B5D3B2C2A225C87
:1028600000000C0B00FE070192032120FFFF0AFF6E
:1028700007FF00000006000A01070706020080802B
:102880008080800080030202060105A0A0050707E2
:102890000600005050F850F8505005070706000099
:1028A0002078A07028F020050707060000C0C81097
:1028B000204098180507070600006090A040A890E7
:1028C00068020303060104C04080030707060100F5
:1028D00020408080804020030707060100804020C0
:1028E0002020408005050506000120A870A82005CD
:1028F00005050600012020F820200203030602FF40
:10290000C04080050101060003F802020206020031
:10291000C0C0050505060001081020408005070716
:10292000060000708898A8C8887003070706010091
:1029300040C040404040E00507070600007088089E
:10294000708080F8050707060000F81020100808BE
:10295000F005070706000010305090F8101005072A
:1029600007060000F880F0080888700507070600D1
:1029700000708080F0888870050707060000F8085E
:102980001020202020050707060000708888708826
:1029900088700507070600007088887808087002AC
:1029A0000505060200C0C000C0C00206060602FF00
:1029B000C0C000C04080040707060000102040800F
:1029C000402010050303060002F800F8040707067C
:1029D000000080402010204080050707060000709E
:1029E0008808102000200507070600007088086886
:1029F000A8A870050707060000708888F8888888EE
:102A0000050707060000F08888F08888F0050707AA
:102A10000600007088808080887005070706000027
:102A2000F08888888888F0050707060000F880800D
:102A3000F08080F8050707060000F88080F08080AD
:102A400080050707060000708880B8888870050731
:102A500007060000888888F888888801070706022A
:102A60000080808080808080050707060000381085
:102A700010101090600507070600008890A0C0A005
:102A80009088050707060000808080808080F80518
:102A9000070706000088D8A88888888805070706E1
:102AA00000008888C8A89888880507070600007075
:102AB000888888888870050707060000F08888F0F5
:102AC00080808005070706000070888888A89068C5
:102AD000050707060000F08888F0A0908805070722
:102AE000060000788080700808F0050707060000DF
:102AF000F82020202020200507070600008888886D
:102B000088888870050707060000888888888850AC
:102B1000200507070600008888888888A8500507D0
:102B2000070600008888502050888805070706009F
:102B30000088888850202020050707060000F80834
:102B400010204080F8030707060000E080808080A6
:102B500080E00505050600018040201008030707F6
:102B6000060000E02020202020E0050303060004EA
:102B7000205088050101060000F802020206020545
:102B8000804005050506000070087888780507076D
:102B90000600008080B0C88888F0050505060000A2
:102BA000708080887005070706000008086898880C
:102BB00088780505050600007088F880700507070D
:102BC0000600003048E0404040400506060600FF91
:102BD0007088887808700507070600008080B0C8F4
:102BE0008888880107070602008000808080808036
:102BF0000308080601FF200020202020A040040731
:102C000007060100808090A0C0A09003070706017E
:102C100000C04040404040E0050505060000D0A847
:102C2000A8A8A8050505060000B0C888888805057D
:102C30000506000070888888700506060600FFF00B
:102C40008888F080800506060600FF788888780866
:102C500008050505060000B0C8808080050505064A
:102C6000000070807008F00407070600004040E094
:102C700040404030050505060000888888986805B2
:102C80000505060000888888502005050506000017
:102C90008888A8A85005050506000088502050889F
:102CA0000506060600FF8888887808700505050671
:102CB0000000F8102040F8030707060100204040FC
:102CC00080404020010707060200808080808080CD
:102CD0008003070706010080404020404080050235
:102CE00002060003689000000006000A0000000CC5
:102CF000000A0000000C000A0000000C000A00009E
:102D0000000C000A0000000C000A0000000C000A81
:102D10000000000C000A0000000C000A0000000C7B
:102D2000000A0000000C000A0000000C000A00006D
:102D3000000C000A0000000C000A0000000C000A51
:102D40000000000C000A0000000C000A0000000C4B
:102D5000000A0000000C000A0000000C000A00003D
:102D6000000C000A0000000C000A0000000C000A21
:102D70000000000C000A0000000C000A0000000C1B
:102D8000000A0000000C000A0000000C000A00000D
:102D9000000C000A0000000C000A0B0B160C00FFD0
:102DA000FFE00200020004000D0014802440C42053
:102DB0000400040004000B0B160C00FFF9008A004D
:102DC000ABE0AC40AA40AA40AA40AA8021005280B1
:102DD0008C600B0B160C00FF240024003F80440085
:102DE00084000400FFE00A0011002080C0600B0B8B
:102DF000160C00FF240024003FC044000400FFE044
:102E0000090009001120212040E00B0B160C00FFE7
:102E100020003DE0512091201120FF201120292089
:102E200025E0452080000B0B160C00FF20807FC0A2
:102E30000840FFE0110020805F4080203F800000BC
:102E40007FC00B0B160C00FF224047E09480E4800B
:102E50002FE04480F48007E03480C48007E00B0B4F
:102E6000160C00FF04808FE0490019002FC00900F4
:102E700009002FC0490089000FE00B0B160C00FF62
:102E800010003F8051000E003180C0603F802480E0
:102E90003F8024803F800B0B160C00FF2280FA40FD
:102EA00007E0FA808A808A80FA802280B280AAA015
:102EB00064E00B0B160C00FF222047409280EFE0ED
:102EC000220047C0EC4007C03440C7C004400B0B91
:102ED000160C00FF08000FC008000800FFE0080003
:102EE0000E0009800840080008000A0B160C00FFBD
:102EF000FF800080008080808080FF8080008000D4
:102F0000804080407FC00B0B160C00FF47C0410083
:102F1000EFE0410045006960C9204D6049204FE065
:102F2000C8200B0B160C00FF0800040004000A0068
:102F30000A000A00110011002080404080200B0B85
:102F4000160C00FF22402200F7E0220023E035208B
:102F5000E52025402880294072200B0A140C00002F
:102F60004440444044407FC0040004008420842046
:102F70008420FFE00B0B160C00FF040000007FC054
:102F80000400040004007FC0040004000400FFE00B
:102F90000B0B160C00FFFFE0110001C0FE00488083
:102FA00025000400FFE015002480C4600B0B160C04
:102FB00000FF11007FC044407FC044407FC0040038
:102FC000FFE0040004000400090B160C00FF1000D1
:102FD000FF8080808080FF8080808080FF80808074
:102FE0008080FF800B0B160C00FF7100010003E0D6
:102FF000F9202120412051208920FA20022004C0FC
:103000000B0B160C00FF7FC0110011001100110006
:10301000FFE0110011002100210041000B0B160CF4
:1030200000FF21002200F44057E0502057C0944098
:103030005440244057C094400B0B160C00FF110065
:103040000A007FC004000400FFE004000A00110031
:103050002080C0600A0B160C00FF5FC00040844057
:103060008440BF4084408C409440A4408C4081C048
:103070000B0B160C00FF240027C024002400FFE0E7
:1030800000001440248047000C0070000B0B160C4D
:1030900000FF248004800FC0E48024803FE024806F
:1030A0002480288050008FE00B0B160C00FF0800D6
:1030B0000800FF8088808880FF8088808880FFA04B
:1030C000882007E00B0B160C00FF27802480F4807B
:1030D000248074806C80A480248024A028A0306088
:1030E0000A0B160C00FFFFC0804080409E409240BB
:1030F00092409E4080408040FFC080400B0B160CE9
:1031000000FF7FC044005FC050405FC050405FC0C0
:1031100042004A805240A6200B0B160C00FF040010
:1031200007E004007FC04040404040407FC00000B6
:10313000524089200B0B160C00FF4780248004802E
:103140000480E86020002FC024402280310026C087
:103150000B0B160C00FF7FC04A407FC00400FFE04D
:1031600004003F80208024802480FFE00B0B160C9D
:1031700000FF22004FE048204FE0C8004FE04AA087
:103180005AA06FE04AA048600B0B160C00FFF3C07A
:1031900024402A80F100228065E07220A540208032
:1031A00023002C000B0B160C00FF0400FFE0802016
:1031B0000000FFE00400240027C0240054008FE03A
:1031C0000B0B160C00FF73E01080510023E0FA2077
:1031D0002AA022A022A02080214062200B0B160CE6
:1031E00000FF2200F78022803680E2A025A0246024
:1031F00068200000524089200B0B160C00FF73C0A2
:10320000420042007BE04A404A407A404A40424005
:10321000444088400B0B160C00FF0800FFE008003C
:103220001FC030405FC090401FC01040104010C011
:103230000B0B160C00FF02007FE0420042005FC053
:10324000420047004A805240622082000B0B160C5D
:1032500000FFF3C096409180A660A10097C0910046
:103260009500E7E0810081000B0B160C00FF0F803A
:1032700088804F8008808F8040001FC035405540B7
:1032800095403FE00B0B160C00FF27E02080F880F4
:10329000208020803880E080208020802080618015
:1032A0000B0B160C00FF1FE0910057C0144017C015
:1032B000944057C011005540992023000B0B160C69
:1032C00000FF208027E0F240218022403420E240AD
:1032D00022402240224064400B0B160C00FF4100AC
:1032E00041004FE0E920492049206FE0C9204920F2
:1032F0004920CFE00B0B160C00FF2100F1004FE03E
:10330000A920F9202FE03920E92029202FE02820CA
:103310000B0B160C00FF8FE049200920CBA04920A1
:103320004FE048204BA04AA06BA050E00B0B160CBE
:1033300000FF7FC004004440244024800400FFE0DC
:1033400004000400040004000B0B160C00FF8200B4
:1033500042001FE0C2005FC052405FC047004A8089
:103360005240BFE00B0B160C00FF04007FE04880CA
:103370007FE048804F8040005FC0484047809860B1
:103380000B0B160C00FF0100EFE0A100A440AFE022
:10339000A440AFE0A920E92002800C600B0B160CC2
:1033A00000FF14C0F6A0BC60A780A880BFE0A920E1
:1033B000EFE009200FE009200B0B160C00FF7F80C7
:1033C00040804280628054804880488054A062A03F
:1033D000406080200B0B160C00FF04007FE04020B3
:1033E0007FE040007DE054204CA0546064A08D60DC
:1033F0000B0B160C00FF82005FE0040008409FE00A
:1034000040200A800A804AA092A022600B0B160C72
:1034100000FF41004FE0E820428044406820C7C0E0
:10342000410041004100CFE00B0B160C00FF502083
:103430007D209120FF2011207D20552055205420F3
:103440005C2010E00B0B160C00FF3F8020803F80BB
:103450002080FFE048007BC0494079404880FB6005
:103460000B0B160C00FF0400040004002480244011
:10347000444044208420040004001C000B0B160C64
:1034800000FF040004000400FFE004000A000A003A
:10349000110011002080C060090A140A0000888011
:1034A00049000800FF80008000807F80008000804D
:1034B000FF800B0B160C00FF21001200FFE0000044
:1034C00078804A807A804A807A80488059800B0BC5
:1034D000160C00FF27C000000000EFE021002200D2
:1034E00024402FE0202050008FE00B0B160C00FF33
:1034F00020802700F90021C077002100F9E0270093
:103500007120A92020E00B0B160C00FF104010408A
:10351000FDE0104038C0354052409440104010400B
:1035200010C00B0B160C00FF0040F8400BE00840E9
:1035300088405240514021405040484089C00A0BC9
:10354000160C00FF840084408480F500860084000F
:1035500084009400A440C44083C00B0B160C00FFF1
:1035600011207D001100FFE02900FD4049407C80D2
:1035700008A0FD600A200B0B160C00FF17C02440AA
:10358000244067C0A1002FE021002380254029208E
:1035900021000B0B160C00FF0800FFE0100027C0F5
:1035A00020806100AFE021002100210023000B0BEF
:1035B000160C00FF24002FE0B400A480A4A0AAC031
:1035C0002A8028802940324024200B0B160C00FF53
:1035D0007FE080003FC020403FC010001FC010406F
:1035E0002880470038E00B0B160C00FF7FE04000FE
:1035F00040004000400040004000400040004000CB
:1036000080000B0B160C00FFFFE004007FC044405D
:103610007FC044407FC0440024001800E7E00B0B4B
:10362000160C00FF11E0FD00450029E0FD401140AF
:103630007D4011405540924034400B0B160C00FF6A
:1036400021005FE04000CFC040004FC040004FC0AD
:1036500048404FC048400B0B160C00FF04007FC0D1
:1036600040407FC040407FC040407FC00440522067
:10367000BFA00B0B160C00FF7FC044407FC044402E
:103680007FC004001B00E0E01100110061000B0B83
:10369000160C00FFFFE0040008007FE049204F20E7
:1036A00049204F20492049207FE00B0B160C00FFDA
:1036B000FDE056407940388055409220FFE00400FC
:1036C00027C02400FFE00B0B160C00FFFB8052000C
:1036D0007BE01240FA4014403F8020803F802080F1
:1036E0003F800B0B160C00FF1FE0200027C064403A
:1036F000A7C020002FE0282027C0210023000B0BAB
:10370000160C00FFF3E082208220FA208220822023
:103710008A20B220C2E0020002000B0B160C00FF50
:10372000248046A095C0E48027E04480F5C006A030
:103730003480C48007E00B0B160C00FF27C041004B
:1037400087E0E02022804580F2800FE03080C14099
:1037500002200B0B160C00FF02000200220023C007
:10376000220022002200220022002200FFE0090B9A
:10377000160C00FF08000800FF8088808880888081
:10378000FF80888088808880FF800B0B160C00FFEC
:10379000210053A04100F7E0510053C0564053C0F0
:1037A0005A4053C042400B0B160C00FF7FC0040070
:1037B00004000400FFE00A000A0012002220422058
:1037C00081E00B0B160C00FF110021002FE06100BF
:1037D000A3802380254025402920210021000B0BB8
:1037E000160C00FFF7E09420F42097E09480F4801A
:1037F00097E09480F4A0966004200B0B160C00FF59
:103800007BE0948004007FC00400FFE00100FFE043
:103810002100110007000B0B160C00FF210047C010
:1038200091002FE06080AFE0208024802280208003
:1038300023800B0B160C00FF27C02440F7C02EE09E
:103840002AA03EE0E1002FE02380254069200B0BF9
:10385000160C00FF140027E02A006200A3C022001B
:10386000220023E022002200220000002100240088
:1038700027002A0000002200250028002B0000005D
:103880002000230026002900020202020202020296
:1038900004040404040404040303030303030303F0
:1038A0000101010101010101010204081020408011
:1038B000010204081020408001020408102040800A
:1038C0008040201008040201000000010200090AE3
:1038D00000000000040308070000000000000000D2
:1038E0000000000000000000526573656E643A201D
:1038F000006F6B0020746F6F206C6F6E67206578AF
:1039000074727573696F6E2070726576656E74651A
:10391000640A0020636F6C64206578747275736943
:103920006F6E2070726576656E7465640A006275EC
:1039300073793A2070617573656420666F722069CF
:103940006E7075740A00627573793A2070617573D0
:10395000656420666F7220757365720A0062757304
:10396000793A2070726F63657373696E670A004BF2
:10397000494C4C45442E20004B494C4C206361750A
:1039800073656420627920746F6F206D75636820A1
:10399000696E6163746976652074696D65202D2098
:1039A00063757272656E7420636F6D6D616E643ADB
:1039B0002000506C656173652072657365740050FA
:1039C00052494E5445522048414C5445440050728F
:1039D000696E7465722068616C7465642E206B6911
:1039E0006C6C28292063616C6C6564210A000000FE
:1039F000000000000000000000000000484200003D
:103A0000484200008040000000005761726E696EFD
:103A1000673A20486F6D696E672042756D7020446B
:103A2000697669736F72203C20310A00020204003B
:103A300000A0400000A0400000004000006B4300D8
:103A4000006B4300007A43FFFFFF656E717565757B
:103A500065696E672022006563686F3A002E0A0070
:103A60006F70656E206661696C65642C2046696CB8
:103A7000653A200057726974696E6720746F20661A
:103A8000696C653A20004572726F722077726974B2
:103A9000696E6720746F20454550524F4D210A00D2
:103AA0002E0A0046696C652862696E292064656C7F
:103AB000657465640044656C6574696F6E2862693D
:103AC0006E29206661696C65640000060900FE00CD
:103AD0000000000001090008FE00000508080600BB
:103AE0000040F0C88888987810050808060000C0D3
:103AF000F88888888888F80505050600012030F8D0
:103B000030200508080600002070F820202020E062
:103B10000509090600FF2070A8A8B888887020054C
:103B200009090600FFE080C0B0A828302828050950
:103B3000090600FFF8A88888888888A8F8050A0A76
:103B40000600FE205050505088A8A8887003030338
:103B500006000340A04059E171E011241FBECFEFE1
:103B6000D0E4DEBFCDBF13E0A0E0B1E0E4ECF7EEBF
:103B700001E00BBF02C007900D92A837B107D9F73B
:103B800029E1A8E7B3E001C01D92A937B207E1F728
:103B90001DE1CCEADDE104C02197FE010E9445F35E
:103BA000CB3AD107C9F70E9458D60C94D5F30C94A0
:103BB00000002F923F924F925F926F927F928F926E
:103BC0009F92AF92BF92CF92DF92EF92FF920F93AC
:103BD0001F93CF93DF93CDB7DEB7C056D1090FB691
:103BE000F894DEBF0FBECDBF0091C70820E6029F4C
:103BF00080011124095B184F8091C40B80FF1AC00B
:103C0000E7E5FAE384917F013FEFE31AF30A8111BC
:103C100002C0780104C00E94153CF701F3CFD70120
:103C20008D917D01882319F00E94153CF8CF8AE020
:103C30000E94153C81E090E09093521280935112C3
:103C40001092A3031092A2038FE38093A603109215
:103C5000A5031092A40384E0E2E9F3E0DF011D92E2
:103C60008A95E9F7F80180810F5F1F4F8032D1F309
:103C70008E34C9F4818190ED980F9A3020F08D3206
:103C800011F08B3281F4DF0112969D012F5F3F4FBF
:103C90008C9180538A3010F4D901F7CFFD01119631
:103CA00080818032D9F3F0935A12E09359127F0148
:103CB000BFEFEB1AFB0A10816AE270E0C7010E94B5
:103CC0009DF3009731F0FC01319780818032E1F360
:103CD00011821D3431F1143521F1173411F1E7E56A
:103CE000FAE384918F010F5F1F4F882321F00E9418
:103CF000153CF801F6CF6091591270915A1289E77C
:103D000097E00E94814982E20E94153C8AE00E946D
:103D1000153C10925212109251120E944BB80C9402
:103D20008235C701FC01208101962032D9F320534E
:103D30002A30A8F61093A60380E090E06AE031965E
:103D4000DF0111972C91022E000C330B2053310907
:103D5000689FA001699F500D1124C901840F951F10
:103D6000208120532A3058F39093A5038093A40315
:103D7000DF0131962C912032D9F31D34A9F48E3114
:103D80009105D1F03CF487319105B1F08C3191056A
:103D900059F412C0853791053CF08737910564F0DE
:103DA000803AE3E09E0741F00091591260E070E034
:103DB000EE24E394F12C43C0B093A303A093A20399
:103DC0007FC0213209F445C03FEBB32EB20E49E16A
:103DD000A42EAB1408F45FC0AF01FA0130814F5F2D
:103DE0005F4F3032D1F340ED430F4A3008F047C007
:103DF000AF018B2C912C640123E0D594C7942A95B4
:103E0000E1F796012E563C4F69012B2D2770D70103
:103E100002C0AA0FBB1F2A95E2F79D01D6013C9173
:103E2000232B2C9341155105A1F1401BD401A85817
:103E3000BC4F4C93208121542A3190F5DF01FD01C4
:103E400031962C912111BDCF7093A3036093A203EF
:103E500037C01D3409F0B8CF8032910509F0B4CFD6
:103E6000F093A303E093A20363E270E0CF010E940A
:103E70009DF3009709F4A9C6DC011C9221C043ED13
:103E8000430F423008F4B4CF3B3211F00C94C033EE
:103E9000AFCF40E0CBCF6115710561F6BD01CACF50
:103EA000DF01AD014F5F5F4F2C9120532A3010F49A
:103EB000DA01F7CFFD01119620812032D9F3BECF70
:103EC0008091A6038D3409F480C6843511F40C94D6
:103ED0007D33873409F003CF2090A4033090A503ED
:103EE000B4E02B16310409F40DC54CF437FC11CFA6
:103EF00080912201F2E02F16310404F517C02AE563
:103F00002216310409F4F9C534F44CE124163104C5
:103F100009F43DC5FECE5BE52516310409F4F0C574
:103F20008CE52816310409F4EFC5F3CE882309F493
:103F3000F0CE0E94DC7E0E946FB7EBCE882309F49E
:103F4000E8CE0E94DC7E82E50E94F73B882309F4DC
:103F50003CC10E94953B4B015C0120E030E0A9018F
:103F60000E9456E9882309F45CC1209153183091CE
:103F7000541840915518509156182DA73EA74FA799
:103F800058AB8091571890915818A0915918B0913A
:103F90005A1889AB9AABABABBCAB2091771230917E
:103FA00078124091791250917A1229AF3AAF4BAF03
:103FB0005CAF80917B1290917C12A0917D12B091A8
:103FC0007E128DAB9EABAFABB8AF6DA57EA58FA5B6
:103FD00098A90E9456E981110DC02DA93EA94FA9AB
:103FE00058AD69A97AA98BA99CA90E9456E9882392
:103FF00009F417C111E092E02916310409F010E02C
:1040000020E030E0A901C501B4010E9456E9881FF3
:104010008827881F181759F020E030E040E85FEB50
:1040200029962CAF3DAF4EAF5FAF29970AC080E015
:1040300090E0A0E8BFE329968CAF9DAFAEAFBFAFD5
:1040400029972DA53EA54FA558A969AD7AAD8BAD91
:104050009CAD0E940FF025966CAF7DAF8EAF9FAFE9
:10406000259729A93AA94BA95CA96DA97EA98FA971
:1040700098AD0E940FF06B017C0125962CAD3DADF3
:104080004EAD5FAD2597CA01B9010E94BCE92B0175
:104090003C01A7019601C701B6010E94BCE99B0142
:1040A000AC01C301B2010E9410F00E94BEF2219641
:1040B0006CAF7DAF8EAF9FAF219720E030E040E046
:1040C0005FE30E94BCE92B013C01A5019401C501FD
:1040D000B4010E94BCE94B015C01A3019201C30140
:1040E000B2010E94BCE99B01AC01C501B4010E9470
:1040F0000FF00E94BEF229962CAD3DAD4EAD5FADE6
:1041000029970E94BCE94B015C01C701B601905898
:1041100021962CAD3DAD4EAD5FAD21970E940AF1C9
:10412000A50194010E94BCE96B017C0129AD3AAD67
:104130004BAD5CAD6DA57EA58FA598A90E9410F032
:1041400020E030E040E05FE30E94BCE99B01AC016D
:10415000C701B6010E9410F02DA53EA54FA558A994
:104160000E940FF06B017C012DA93EA94FA958AD0B
:1041700069A97AA98BA99CA90E9410F020E030E0DF
:1041800040E05FE30E94BCE92B013C0121962CAD8D
:104190003DAD4EAD5FAD219725966CAD7DAD8EAD3D
:1041A0009FAD25970E940AF1A50194010E94BCE9E8
:1041B0009B01AC01C301B2010E9410F029A93AA9E8
:1041C0004BA95CA90E940FF014C089E40E94F73B40
:1041D000882329F00E94953B6B017C0103C0C12C10
:1041E000D12C76018AE40E94F73B8823E9F00E94F3
:1041F000953B69AF7AAF8BAF9CAF20E030E0A9016F
:10420000C701B6010E9456E981111BC020E030E0D1
:10421000A90169AD7AAD8BAD9CAD0E9456E98111C3
:1042200010C0E9E0FCE05BC320E030E0A901C70179
:10423000B6010E9456E98823A1F319AE1AAE1BAE4F
:104240001CAEA701960150582DA73EA74FA758AB0B
:1042500089AD9AADABADBCADB05889AB9AABABAB49
:10426000BCABCA01B9010E94BCE94B015C0129A9A0
:104270003AA94BA95CA9CA01B9010E94BCE99B01FA
:10428000AC01C501B4010E9410F00E94BEF2699613
:104290006CAF7DAF8EAF9FAF69972091531830916F
:1042A000541840915518509156182DAB3EAB4FAB5A
:1042B00058AFA70196016DA97EA98FA998AD0E945C
:1042C00010F029966CAF7DAF8EAF9FAF299780918C
:1042D000571890915818A0915918B0915A182196D2
:1042E0008CAF9DAFAEAFBFAF21979C01AD0169AD63
:1042F0007AAD8BAD9CAD0E9410F02D966CAF7DAF6A
:104300008EAF9FAF2D972091771230917812409108
:10431000791250917A1261962CAF3DAF4EAF5FAFDC
:10432000619729962CAD3DAD4EAD5FAD2997619655
:104330006CAD7DAD8EAD9FAD61970E940FF06B01AE
:104340007C0180917B1290917C12A0917D12B091A2
:104350007E1265968CAF9DAFAEAFBFAF65972D96C1
:104360002CAD3DAD4EAD5FAD2D97BC01CD010E9492
:104370000FF04B015C0120915B1830915C1840916B
:104380005D1850915E186D962CAF3DAF4EAF5FAF8C
:104390006D9760917F12709180128091811290913F
:1043A00082120E940FF025966CAF7DAF8EAF9FAF4B
:1043B0002597A70196016DA57EA58FA598A90E94B6
:1043C000BCE92B013C01A501940169A97AA98BA93B
:1043D0009CA90E94BCE99B01AC01C301B2010E94EF
:1043E00010F02B013C01A50194016DA57EA58FA5C0
:1043F00098A90E94BCE94B015C01A701960169A93B
:104400007AA98BA99CA90E94BCE99B01AC01C501BA
:10441000B4010E940FF0A30192010E948FF06B0182
:104420007C0120E030E0A9010E9456E987FF0AC024
:104430002BED3FE049EC50E4C701B6010E9410F0BB
:104440006B017C0132E02316310451F42BED3FE087
:1044500049EC50E4C701B6010E940FF06B017C01EA
:1044600020E030E0A901C701B6010E9456E98111A0
:1044700026C061962CAD3DAD4EAD5FAD61976DA987
:104480007EA98FA998AD0E9456E9811118C0659642
:104490002CAD3DAD4EAD5FAD659721966CAD7DAD5C
:1044A0008EAD9FAD21970E9456E9811108C01BED8A
:1044B000C12E1FE0D12E19ECE12E10E4F12EA70140
:1044C000960169966CAD7DAD8EAD9FAD69970E94EA
:1044D000BCE99B01AC010E94BCE94B015C01259643
:1044E0002CAD3DAD4EAD5FAD2597CA01B9010E941F
:1044F000BCE99B01AC01C501B4010E9410F00E940F
:10450000BEF24B015C012FE632E143E85AE30E9420
:1045100056E987FDDEC1C501B4010E94B2F10E94D7
:1045200083F17EAF6DAF672B21F421E030E03EAF29
:104530002DAF40905F185090601860906118709097
:104540006218ADACBEACB50180E090E00E945BE9C2
:104550004B015C019B01AC01C701B6010E940AF14D
:104560006DAB7EAB8FAB98AFA501940125966CAD7A
:104570007DAD8EAD9FAD25970E940AF169966CAF17
:104580007DAF8EAF9FAF6997A301920160918312B7
:104590007091841280918512909186120E940FF082
:1045A000A50194010E940AF1A1966CAF7DAF8EAF78
:1045B0009FAFA1972DA93EA94FA958ADCA01B90136
:1045C0000E94BCE920E030E040E05FE30E94BCE9EB
:1045D0009B01AC0160E070E080E89FE30E940FF077
:1045E00025966CAF7DAF8EAF9FAF25976D962CADA6
:1045F0003DAD4EAD5FAD6D9729873A874B875C87A0
:104600004D865E866F86788A60911B0170911C01D1
:10461000072E000C880B990B0E945DE92091060182
:104620003091070140910801509109010E94BCE9B5
:104630002AE037ED43E25CE30E94BCE961966CAF8F
:104640007DAF8EAF9FAF61970E9410AE9B01AC0112
:1046500028533F4F4F4F5F4F65962CAF3DAF4EAF46
:104660005FAF65974DA45EA46FA478A8222423941D
:10467000312CB9E1DB2EADACBEACA214B30409F40D
:1046800014C10E94D7640E9410AEDC01CB01659674
:104690002CAD3DAD4EAD5FAD6597821B930BA40B6A
:1046A000B50BB7FD11C00E9410AE9B01AC012853A1
:1046B0003F4F4F4F5F4F65962CAF3DAF4EAF5FAF53
:1046C000659780E00E9407B5DA94DD2009F441C0C7
:1046D00029A93AA94BA95CA925966CAD7DAD8EADF3
:1046E0009FAD25970E94BCE94B015C019201A3019B
:1046F0006DA97EA98FA998AD0E94BCE9A50194017E
:104700000E9410F07B018C019201A30125966CADF3
:104710007DAD8EAD9FAD25970E94BCE94B015C013C
:1047200029A93AA94BA95CA96DA97EA98FA998AD21
:104730000E94BCE99B01AC01C501B4010E940FF0CD
:104740002B013C01C701D80189AB9AABABABBCAB29
:104750004DC0B10180E090E00E945BE92DA93EA927
:104760004FA958AD0E94BCE94B015C010E9405F1C4
:104770006B017C01C501B4010E94B0F24B015C01E8
:10478000A70196016DA57EA58FA598A90E94BCE9F9
:104790002B013C01A501940169AD7AAD8BAD9CADB7
:1047A0000E94BCE9A30192010E9410F02B013C0180
:1047B000A50194016DA57EA58FA598A90E94BCE9CD
:1047C0004B015C01A701960169AD7AAD8BAD9CAD43
:1047D0000E94BCE99B01AC01C501B4010E940FF02D
:1047E00069AB7AAB8BAB9CABF9E1DF2E9201A301F5
:1047F00029966CAD7DAD8EAD9FAD29970E9410F0CE
:1048000069837A838B839C8329A93AA94BA95CA9E4
:104810002D966CAD7DAD8EAD9FAD2D970E9410F0A5
:104820006D837E838F83988769962CAD3DAD4EADA9
:104830005FAD699769857A858B859C850E9410F0AC
:1048400069877A878B879C87A1962CAD3DAD4EAD4D
:104850005FADA1976D857E858F8598890E9410F048
:104860006D877E878F87988B80912F01882321F019
:10487000CE0101960E9417B3C090760B6196ECAC06
:10488000FDAC0EAD1FAD61979E01235F3F4FAE01A2
:10489000475F5F4FBE016B5F7F4FCE0101960E9465
:1048A000364B3FEF231A330AE6CEC090760B619663
:1048B000ECACFDAC0EAD1FAD619723E832E14FE7E4
:1048C00052E16BE772E187E792E10E94364B0E946A
:1048D0001B3A0E940A3C1DCA0E94153CF8018491B3
:1048E0008F010F5F1F4F8111F7CFE3ECF2E084914E
:1048F0008F010F5F1F4F882309F40BCA0E94153CDC
:10490000F801F5CF80E50E94F73B882329F00E944B
:10491000513B6B017C0103C0C12CD12C760183E596
:104920000E94F73B882361F00E94953B20E030E035
:104930004AE754E40E94BCE90E9483F16B017C01C8
:104940000E94C36780913D01811105C060E089ED3F
:1049500092E00E949CB20E940A3C809123079091B1
:104960002407A0912507B0912607C80ED91EEA1E7C
:10497000FB1E0E9410AEDC01CB018C199D09AE0913
:10498000BF09B7FFC6C980E00E9407B5F2CF0E94F9
:10499000C3678091060190910701A0910801B09131
:1049A000090180939E0390939F03A093A003B0936B
:1049B000A10380911B0190911C0190939D03809312
:1049C0009C0384E690E090931C0180931B010E945D
:1049D0000A3C81E08093AD0388E50E94C83BE82E45
:1049E00089E50E94C83B082F8AE50E94C83BF82E43
:1049F000E11005C0011105C011E0182705C0011123
:104A000002C010E001C0182F0E94113A111105C018
:104A1000E11003C0002309F444C020E030E040EA84
:104A200050E46091671270916812809169129091C0
:104A30006A120E9410F060937F127093801280932C
:104A400081129093821220915B1830915C184091F2
:104A50005D1850915E180E9470F218167CF419824D
:104A60001A821B821C829E012F5F3F4F4FE752E14B
:104A700067E578E183E598E10E941F39111105C0CF
:104A8000E11003C0011107C00CC080E090E00E945B
:104A9000A9B31123B9F381E090E00E94A9B31111E9
:104AA00002C0FF2021F082E090E00E94A9B30E94A2
:104AB000473B809117118093AD0380919E039091A5
:104AC0009F03A091A003B091A1038093060190934E
:104AD0000701A0930801B093090180919C03909174
:104AE0009D0390931C0180931B010E940A3C83E06C
:104AF00080930A010E9495770CC910929B0309C903
:104B000081E080939B0305C985E40E94F73BB82EA2
:104B1000811102C00E94C36764E9862E61E0962E6F
:104B200073E5C72E78E1D72EEBE6EE2EE2E1FE2EFE
:104B300000E010E0A12C33243394D4018D914D0179
:104B40000E94F73B882359F1F60140805180628032
:104B500073800E94953BD6016D937D938D939C93BA
:104B600013970330E1F0023011F43092B003A30147
:104B700092010E940FF09B01AC01F70160817181ED
:104B8000828193810E9410F0D7016D937D938D9364
:104B90009C931397C8010E943E3AAA24A3940F5FE6
:104BA0001F4FB4E0CB0ED11CE4E0EE0EF11C04303C
:104BB000110519F6AA2019F00E94473B03C0B11055
:104BC0000E94E3D10E949577A4C88091A40390919C
:104BD000A5038137910509F427C60CF0C5C08B34B5
:104BE000910509F43BC50CF056C08831910509F4D4
:104BF00098C284F58231910509F4FDC69CF497FDB5
:104C000088C8823091050CF4ADC1419709F081C884
:104C100060E087E093E00E949CB25E985E981598F1
:104C20005E9877C88531910509F464C234F44497DD
:104C300009F06FC8EFE1F3E01DC28631910509F478
:104C40005DC2479709F065C88091A2039091A303C4
:104C5000FC015EC28C31910509F4CCC25CF48A314E
:104C6000910509F46BC20CF088C2109228130E94BF
:104C700090D24FC88F31910509F4F9C324F44E97AF
:104C800009F4C2C246C88032910509F4A6C38A97C6
:104C900009F4A3C43EC88836910509F4EBC40CF0AE
:104CA00044C08235910509F49DC634F58D349105D3
:104CB00009F4DCC40CF4D6C48135910509F029C887
:104CC0000E94ECA30E94C3670E9494B41092E9155D
:104CD0001092E8150E9461D21092B2031092B103B3
:104CE00068EE73E080E090E00E94B1B160E089E39B
:104CF00094E00E949CB20DC88435910509F47BC6EE
:104D00000CF474C68535910509F4ACC68C35910553
:104D100011F00C94891E24E9C22E21E0D22E33E634
:104D2000E32E38E1F32E10E0B8C68C36910509F475
:104D300073C53CF48A36910509F423C60CF4BFC54B
:104D40003FC68E36910509F4E1C40CF4FEC58F36DA
:104D5000910509F4EEC48037910511F00C94891E79
:104D60008BE094E00E949EB4833D910509F4F3C06A
:104D70000CF06DC08139910511F40C94AA2E6CF5DC
:104D80008637910511F40C94622EA4F483379105B3
:104D900009F4E5C00CF401C78537910511F00C94B6
:104DA000891E60E08091A2039091A3030E94BAB291
:104DB0000C94891E8837910511F40C949D2E14F4DF
:104DC0000C94992E8937910511F40C94A42E8C38EB
:104DD000910509F456C50C94891E893C910511F47E
:104DE0000C94792F7CF48E3B910509F4B2C5883C74
:104DF000910511F40C94252F8B39910511F00C9429
:104E0000891E7AC58C3C910511F40C94B52F6CF475
:104E10008B3C910511F00C94891E74E9E72E71E02A
:104E2000F72E0EE211E10C94A52F8D3C910511F4A3
:104E30000C9421308E3C910511F00C94891E64E98C
:104E4000E62E61E0F62E00E010E00C948E308A39F8
:104E5000F1E09F0709F4E4C47CF58D3231E093075B
:104E600011F40C9498318CF48D3D910511F40C944F
:104E70004E31823E910511F40C946A318C3D9105BE
:104E800011F00C94891E0C943F318F3251E095073C
:104E900011F40C948E3214F40C9437328336B1E052
:104EA0009B0709F454C08039914011F00C94891E7D
:104EB0000E94C3670C94891E863FF1E09F0711F49E
:104EC0000C943B3354F5843F31E0930711F40C9478
:104ED000333314F00C9437338C3A914011F00C9426
:104EE000891EE7E7FBE0FEA7EDA78FE5882E82E1AC
:104EF000982E93E5A92E98E1B92E24EFC22E20E139
:104F0000D22E33E2232E31E0332E4EEEE42E49E34F
:104F1000F42E00E010E00C9492328835A2E09A075B
:104F200011F40C944E333CF4873F914011F40C94EF
:104F30003F330C94891E803AF3E09F0709F48AC23C
:104F4000873E934011F40C9469330C94891EE9E078
:104F5000FCE00C945533E7E5FAE30C94A730E1E26A
:104F6000F5E024C6A090A203B090A30380E50E94C0
:104F7000F73B882359F00E94513B6B017C0111E003
:104F8000672B682B692B31F410E004C010E0C12CB2
:104F9000D12C760183E50E94F73B8823F1F00E9433
:104FA000953B20E030E04AE754E40E94BCE90E94CF
:104FB00083F16B017C01111112C0672B682B692BE7
:104FC00071F4A114B10459F0D5018C91882339F002
:104FD00061E0C5010E94BAB207C0112391F360E0FD
:104FE00086EF92E00E949CB283E090E09093521290
:104FF0008093511281E080939F120E94C3670E94A8
:105000000A3CC114D104E104F104E1F080912307CA
:1050100090912407A0912507B0912607C80ED91EAC
:10502000EA1EFB1E0E9410AEDC01CB018C199D090B
:10503000AE09BF09B7FF1AC080919F1281110C946D
:10504000CA3314C080919F12882321F080E00E940F
:1050500007B5F8CF8091281360E0882319F087EE18
:1050600092E002C082EE92E00E949CB210929F12E7
:105070000C94891E84918F010F5F1F4F882321F0AC
:105080000E94153CF801F6CF1092CD151092CC1568
:1050900089E593E10E94DFA68BE1E9E5F3E1DE011A
:1050A000159601900D928A95E1F780915713909192
:1050B00058139C838B838CE991E09A83898340E029
:1050C00050E0BE016F5F7F4F85E792E00E94C244CF
:1050D000CE0101960E948CB4E0E1F3E084918F014F
:1050E0000F5F1F4F882311F40C94891E0E94153CFA
:1050F000F801F4CF0E9427430C94891E10922813C4
:10510000109229130C94891E203209F410823196D2
:1051100020812111F9CF40E061E00E94CD460C943E
:10512000891E0E9461D280912913882319F081E0A1
:10513000809328130E9421D20C94891E80912913F8
:10514000882311F40C94891E83E50E94F73B882381
:1051500011F40C94891E0E94613BAB01BC01409389
:10516000C3155093C4156093C5157093C61583EF8E
:1051700094E10E94A1CE0C94891E80912913811183
:1051800003C0E2E4F3E02AC0E0E3F3E084918F019E
:105190000F5F1F4F882321F00E94153CF801F6CFC6
:1051A0006091C3157091C4158091C5159091C61575
:1051B0004AE00E941C3C8FE20E94153C6091BF15A2
:1051C0007091C0158091C1159091C2154AE00E945E
:1051D0001C3C8AE00E94153C0C94891E84918F012E
:1051E0000F5F1F4F882311F40C94891E0E94153CF9
:1051F000F801F4CF40E060E08091A2039091A30316
:105200000E94CD460C94891E80912913882311F4A5
:105210000C94891E83EF94E10E946ECE83EF94E19B
:105220000E9481A51092271310922613E090A203EA
:10523000F090A30380912913882311F40C94891E04
:10524000109228138091F614882321F083EF94E1C3
:105250000E9481A5FE0131966F01CF010E940ECC04
:1052600085E593E19093751380937413D7018C9126
:105270008F3209F060C06FE270E0C7010E949DF3B9
:105280008C010F5F1F4F09F45CC06FE270E0C80132
:105290000E949DF35C01009709F454C00817190798
:1052A00008F050C04C01801A910AA401B801CE0147
:1052B00080960E94C6F3E0E2F0E0EC0FFD1FE80DDF
:1052C000F91D10828E01005E1F4FF80181918F0140
:1052D000882319F00E94153CF8CF8AE00E94153C03
:1052E00060917413709175136115710511F06C5F05
:1052F0007F4F21E0AE01405E5F4FCE0105960E94D8
:1053000030AB811112C0BE01605E7F4F89E793E030
:105310000E9481498EE20E94153C8AE00E94153C61
:10532000C6010E948CB40C94891ED0927513C09251
:1053300074138501A6CF86E793E19093751380934C
:10534000741387018091741390917513009709F07D
:105350000496B8010E94CCD0811103C0E1E6F3E0CD
:1053600021C0E3E5F3E084917F012FEFE21AF20A16
:10537000882321F00E94153CF701F5CFD8018D91CB
:105380008D01882319F00E94153CF8CF8AE00E9415
:10539000153C1092C3151092C4151092C5151092A9
:1053A000C61516C084917F01BFEFEB1AFB0A882354
:1053B00021F00E94153CF701F5CFF80181918F0192
:1053C000882319F00E94153CF8CF8EE20E94153C0C
:1053D000C6010E948CB40C94891E809128138111FF
:1053E0000E94C367E090A203F090A30380E50E94AF
:1053F000C83B182F882319F00E94853B182F8091F5
:105400002913882311F40C94891E412F61E0C701F0
:105410000E94CD4683E50E94F73B882381F00E94DD
:10542000613BAB01BC014093C3155093C41560931D
:10543000C5157093C61583EF94E10E94A1CE8091AB
:105440002913882319F081E08093281311110C94FB
:10545000891E70CE8091A2039091A30321E0209336
:10546000271340E060E00E94CD460C94891E0E9404
:1054700071447B018C0120E831E541E050E00E945D
:10548000ACEFC9016DE671E00E941DF34B015C01B8
:10549000C801B70120E13EE040E050E00E94ACEFDF
:1054A000CA01B90128E130E040E050E00E94ACEFD1
:1054B000762E672EC62ED72E5CE3252E312C412C5E
:1054C000512CC801B701A20191010E94ACEFF62E48
:1054D000E72ECA01B901A20191010E94ACEFCB01F4
:1054E0008E010F5F1F4F8114910499F0EF92FF928C
:1054F0007F936F936F927F92BF92AF929F928F92A2
:1055000085EB93E09F938F931F930F930E94EEE898
:1055100013C0A114B104B1F0EF92FF927F936F9387
:105520006F927F92BF92AF9285EA93E09F938F93A1
:105530001F930F930E94EEE80FB6F894DEBF0FBEE4
:10554000CDBF30C0CD2879F0EF92FF927F936F935B
:105550006F927F9289E993E09F938F931F930F93AC
:105560000E94EEE8E9CF892B69F0EF92FF927F93DA
:105570006F9381E993E09F938F931F930F930E9402
:10558000EEE8DACFEF92FF928DE893E09F938F934E
:105590001F930F930E94EEE80F900F900F900F90C3
:1055A0000F900F9060E0C8010E94BAB2E7E5FAE3FD
:1055B00084917F01BFEFEB1AFB0A882321F00E9440
:1055C000153CF701F5CFB80189EC93E00E948149C1
:1055D0008AE00E94153C0C94891E83E50E94F73BEB
:1055E000882311F40C94891E0E94713BE82E80E5FB
:1055F0000E94F73B882311F40C94891E0E94613BA2
:10560000162FC62ED72ED7FE02C00C94891EE0ECB2
:10561000F6E088EE96E02491121303C0E9E0FCE086
:1056200009C031968E179F07B1F70C94CF330E94B3
:10563000153CF80184918F010F5F1F4F8111F7CF47
:10564000E6EDF3E084918F010F5F1F4F882311F483
:105650000C94891E0E94153CF801F4CF0E9421D2BF
:105660000C94891E0E9490D20C94891E0E9427C11E
:105670000C94891E88E690E00E94893C81110C946C
:10568000891E8091C40B83FF02C00C94891E83E5A0
:105690000E94F73B8823B1F10E94953B0E947CF168
:1056A000CB010E9421B20E94953B20E030E04AEA03
:1056B00052E40E9456E918163CF00E9427C160E0AF
:1056C00081EF93E00E949CB20E94953B2091BB1118
:1056D0003091BC114091BD115091BE110E9470F2E9
:1056E000181684F484E092E09F938F9385EE93E004
:1056F0009F938F931F920E94A7440F900F900F903B
:105700000F900F900E94BC490C94891E8EE40E9459
:10571000F73B882311F40C94891E0E94613B60932F
:105720004D1270934E1280934F12909350120C941E
:10573000891E83E50E94C83B882359F083E50E94B7
:10574000F73B882319F00E94713B01C080E08093F1
:10575000C40BE7E5FAE384918F010F5F1F4F8111BE
:1057600003C0E4E0F4E004C00E94153CF801F3CF6C
:1057700084918F010F5F1F4F882321F00E94153CF9
:10578000F801F6CF8091C40B811103C0E0E0F4E092
:1057900034C046EFC42E43E0D42EE12CF12C20E09F
:1057A0008091C40B90E00E2C02C0959587950A94C9
:1057B000E2F780FF17C0BB24B394B20E222319F086
:1057C0008CE20E94153CF60185919491FC01849134
:1057D0008F010F5F1F4F882321F00E94153CF801B5
:1057E000F6CF2B2DEFEFEE1AFE0AF2E0CF0ED11C12
:1057F00035E0E316F104A1F60AC084918F010F5F32
:105800001F4F882321F00E94153CF801F6CF8AE053
:105810000E94153C0C94891E109218010C94891E4C
:105820000E943C770C94891E83E50E94F73B81110E
:1058300003C0E7E5FAE30DC00E94713B8093360197
:105840008D3310F40C94891E8CE3809336010C94F4
:10585000891E84918F010F5F1F4F882321F00E94C2
:10586000153CF801F6CF4091360150E060E070E061
:1058700084E194E00E942E498AE00E94153C0C9439
:10588000891E8091C40B83FF02C00C94891E83E59E
:105890000E94F73B882311F40C94891E0E94953BCB
:1058A0000E947CF16739710514F066E970E070932D
:1058B000E7156093E6150E94A0A30C94891E89E663
:1058C00090E00E94893C811111C0EBE1F4E08491E9
:1058D0008F010F5F1F4F882321F00E94153CF801B4
:1058E000F6CF0E9454788AE00E94153C1092521222
:1058F000109251120C94823583E50E94F73B882365
:1059000011F40C94891E0E94713B809357128D33C1
:1059100018F08CE3809357120E9410AE6B017C014B
:105920002091571230E0A8EEB3E00E9400F0C60EBE
:10593000D71EE81EF91EC0925312D0925412E09264
:105940005512F09256120C94891E0E94B27C0C944F
:10595000891E8091C40B83FF02C00C94891E60E0F5
:105960008CE294E00E949CB283E50E94F73B89AFF1
:1059700081112EC782E50E94F73B811129C70C9443
:10598000891E83E50E94F73B882339F00E94613B22
:105990008B016F3F710519F010F00FEF10E080E5FB
:1059A0000E94F73B811106C01093E9150093E8159A
:1059B0000C94891E0E94713B81110C94891EF4CFB6
:1059C00080E50E94F73B811106C01092E915109204
:1059D000E8150C94891E0E94613B672B11F00C9412
:1059E000891EF3CF10929A030C94891E81E0809354
:1059F0009A030C94891E83E50E94F73B8823A1F04B
:105A00000E94953B20E030E04AE754E40E94BCE964
:105A10000E9483F1609337017093380180933901BC
:105A200090933A010C94891E88E50E94C83B81112D
:105A30000C943B3589E50E94C83B81110C943B35A1
:105A40008AE50E94C83B81110C943B3585E40E9495
:105A5000C83B81110C943B350E94C3670E9494B4EB
:105A60000C94891E83E50E94C83B882311F40C9492
:105A7000891E0E94953B20E030E04AE754E40E94F2
:105A8000BCE90E9483F160935B1270935C12809377
:105A90005D1290935E120C94891ED6018D916D015A
:105AA0000E94C83B882309F46DC0133009F063C01D
:105AB0000E94953B4B015C0120E030E040EA51E45C
:105AC0000E9456E987FF4EC0A501940160916F18AE
:105AD0007091701880917118909172180E940AF15B
